:100000000C942A000C942C140C9447000C94470078
:100010000C9447000C9447000C9447000C94470044
:100020000C9447000C9447000C9447000C94470034
:100030000C9447000C9447000C9447000C94470024
:100040000C9447000C9447000C9447000C94470014
:100050000C94470011241FBECFE5D8E0DEBFCDBF12
:1000600011E0A8E6B1E001C01D92AD37B107E1F79C
:1000700011E0A0E6B0E0E0E0FEE202C005900D92E3
:10008000A836B107D9F70E947A150C94FE160C9485
:100090000000EF92FF920F931F937B018C0120E0F1
:1000A00030E040E05FE40E94F50388238CF0C80153
:1000B000B70120E030E040E05FE40E94C1010E940F
:1000C00055049B01AC01205030404040504806C0D0
:1000D000C801B7010E9455049B01AC01B901CA01D6
:1000E0001F910F91FF90EF900895A0E0B0E0EBE733
:1000F000F0E00C949616DC012B01FA019C919230F1
:1001000008F439C1EB018881823008F433C194309E
:1001100069F4843009F02FC111969C91119789815F
:10012000981709F428C1A0E6B0E025C1843009F48D
:1001300021C18230A9F4923009F01DC19A01AD01AC
:1001400088E0EA010990AE01E90109929E0181501F
:10015000C1F7E201898111969C918923818308C1AD
:10016000923009F407C112962D903C901397EB0141
:100170008A819B811496AD90BD90CD90DC901797AD
:10018000EC80FD800E811F819101281B390BB90184
:1001900037FF04C066277727621B730B6032710537
:1001A0000CF061C0121613066CF537014801062EDB
:1001B00004C096948794779467940A94D2F721E0C8
:1001C00030E040E050E004C0220F331F441F551FB1
:1001D0006A95D2F721503040404050402E213F21B7
:1001E00040235123211531054105510521F021E01E
:1001F00030E040E050E079018A01E628F72808293C
:1002000019293CC0232BD1F1260E371E350146019A
:10021000062E04C096948794779467940A94D2F734
:1002200021E030E040E050E004C0220F331F441FC3
:10023000551F6A95D2F721503040404050402A2146
:100240003B214C215D21211531054105510521F04E
:1002500021E030E040E050E059016A01A628B728CB
:10026000C828D9280BC0821593052CF01C01AA249C
:10027000BB24650103C0EE24FF24870111969C91E5
:10028000D20111968C91981709F445C0992339F041
:10029000A80197012A193B094C095D0906C0A6016E
:1002A00095012E193F09400B510B57FD08C01182D3
:1002B0003382228224833583468357831DC081E0A5
:1002C00081833382228288279927DC01821B930B4A
:1002D000A40BB50B84839583A683B7830DC0220F2F
:1002E000331F441F551F24833583468357838281E0
:1002F000938101979383828324813581468157813D
:10030000DA01C9010197A109B1098F5F9F4FAF4F72
:10031000BF4328F30BC0918333822282EA0CFB1C7B
:100320000C1D1D1DE482F5820683178383E0808304
:10033000248135814681578157FF1AC0C901AA27F8
:1003400097FDA095BA2F81709070A070B0705695EF
:10035000479537952795822B932BA42BB52B848318
:100360009583A683B7838281938101969383828349
:10037000DF0101C0D201CD01CDB7DEB7E2E10C94BF
:10038000B216A0E2B0E0E7ECF1E00C94A2166983AB
:100390007A838B839C832D833E834F835887E9E048
:1003A000EE2EF12CEC0EFD1ECE010196B7010E943F
:1003B00046068E010F5E1F4FCE010596B8010E94C2
:1003C00046068A8991E089278A8BC701B801AE0168
:1003D000475E5F4F0E9475000E947105A096E6E09F
:1003E0000C94BE16A0E2B0E0E8EFF1E00C94A21687
:1003F00069837A838B839C832D833E834F835887C5
:10040000F9E0EF2EF12CEC0EFD1ECE010196B701A6
:100410000E9446068E010F5E1F4FCE010596B80161
:100420000E944606C701B801AE01475E5F4F0E94B9
:1004300075000E947105A096E6E00C94BE16A0E23D
:10044000B0E0E5E2F2E00C94961669837A838B8340
:100450009C832D833E834F835887CE010196BE0136
:10046000675F7F4F0E944606CE010596BE016F5E14
:100470007F4F0E9446069985923088F089898230A4
:10048000C8F0943019F4823051F404C0843029F457
:10049000923081F480E690E0C6C0923049F420E0CA
:1004A0009A858A89981321E02A87CE010996BBC0D4
:1004B000823049F420E09A858A89981321E02A8BBA
:1004C000CE014196B0C02D843E844F8458886D88FB
:1004D0007E888F88988CEE24FF248701AA24BB2471
:1004E000650140E050E060E070E0E0E0F0E0C10174
:1004F00081709070892BE9F0E60CF71C081D191D1E
:100500009A01AB012A0D3B1D4C1D5D1D80E090E062
:10051000A0E0B0E0E614F7040805190520F481E036
:1005200090E0A0E0B0E0BA01A901480F591F6A1F8E
:100530007B1FAA0CBB1CCC1CDD1C97FE08C081E0F5
:1005400090E0A0E0B0E0A82AB92ACA2ADB2A3196B6
:10055000E032F10549F0660C771C881C991C569412
:10056000479437942794C3CFFA85EA892B893C892D
:100570008B859C85280F391F2E5F3F4F17C0CA01FE
:1005800081709070892B61F016950795F794E79428
:1005900080E090E0A0E0B0E8E82AF92A0A2B1B2BC3
:1005A00076956795579547952F5F3F4F77FDE7CF36
:1005B0000CC0440F551F661F771F17FD4160EE0CDE
:1005C000FF1C001F111F21503040403090E05907A0
:1005D00090E0690790E4790760F32B8F3C8FDB0193
:1005E000CA018F779070A070B07080349105A1051A
:1005F000B10561F447FD0AC0E114F10401051105DC
:1006000029F0405C5F4F6F4F7F4F40781A8EFE1786
:1006100011F081E08A8F4D8F5E8F6F8F78A383E01A
:10062000898FCE0149960E947105A096E2E10C9453
:10063000B216A8E1B0E0EFE1F3E00C949E166983F6
:100640007A838B839C832D833E834F835887B9E0C5
:10065000EB2EF12CEC0EFD1ECE010196B7010E948F
:1006600046068E010F5E1F4FCE010596B8010E940F
:1006700046062985223008F47EC03989323010F4CC
:10068000B8017CC08A859A8989278A87243011F02D
:10069000223031F4231709F06EC060E670E06EC0BE
:1006A000343039F41D861E861F86188A1C861B86E8
:1006B00004C0323021F484E08987B7015FC02B8504
:1006C0003C858B899C89281B390B3C872B87ED84C3
:1006D000FE840F851889AD88BE88CF88D88CEA142F
:1006E000FB040C051D0540F4EE0CFF1C001F111F40
:1006F000215030403C872B8720E030E040E050E044
:1007000080E090E0A0E0B0E460E070E0EA14FB0478
:100710000C051D0540F0282B392B4A2B5B2BEA18C2
:10072000FB080C091D09B695A79597958795EE0CC2
:10073000FF1C001F111F6F5F7F4F6F31710531F775
:10074000DA01C9018F779070A070B0708034910584
:10075000A105B10561F427FD0AC0E114F10401050A
:10076000110529F0205C3F4F4F4F5F4F20782D87B8
:100770003E874F87588BBE01675F7F4FCB010E943A
:1007800071056896EAE00C94BA16A8E1B0E0EBECCB
:10079000F3E00C94A21669837A838B839C832D8368
:1007A0003E834F83588789E0E82EF12CEC0EFD1E26
:1007B000CE010196B7010E9446068E010F5E1F4FC3
:1007C000CE010596B8010E9446068985823040F028
:1007D0008989823028F0C701B8010E94BE0601C095
:1007E0008FEF6896E6E00C94BE16A8E1B0E0EBEF60
:1007F000F3E00C94A21669837A838B839C832D8308
:100800003E834F83588789E0E82EF12CEC0EFD1EC5
:10081000CE010196B7010E9446068E010F5E1F4F62
:10082000CE010596B8010E9446068985823040F0C7
:100830008989823028F0C701B8010E94BE0601C034
:100840008FEF6896E6E00C94BE16A8E1B0E0EBE20C
:10085000F4E00C94A21669837A838B839C832D83A6
:100860003E834F83588789E0E82EF12CEC0EFD1E65
:10087000CE010196B7010E9446068E010F5E1F4F02
:10088000CE010596B8010E9446068985823040F067
:100890008989823028F0C701B8010E94BE0601C0D4
:1008A00081E06896E6E00C94BE16ACE0B0E0EBE5C3
:1008B000F4E00C94A61669837A838B839C83CE0123
:1008C0000196BE016B5F7F4F0E9446068D8182308C
:1008D00061F1823050F1843021F48E81882351F10E
:1008E0002EC02F81388537FD20C06E812F31310514
:1008F0001CF06623F9F023C08EE190E0821B930B7D
:1009000029853A854B855C8504C056954795379572
:1009100027958A95D2F76623B1F05095409530958A
:1009200021953F4F4F4F5F4F0EC020E030E040E039
:1009300050E009C02FEF3FEF4FEF5FE704C020E02A
:1009400030E040E050E8B901CA012C96E2E00C9496
:10095000C216A8E0B0E0EFEAF4E00C949E167B012A
:100960008C01611571058105910519F482E0898377
:1009700060C083E089838EE1C82ED12CDC82CB82DB
:10098000ED82FE820F831887C801B7010E942205FD
:10099000FC013197F7FF3BC0222733272E1B3F0B6B
:1009A00057016801022E04C0D694C794B794A79447
:1009B0000A94D2F740E050E060E070E081E090E01F
:1009C000A0E0B0E004C0880F991FAA1FBB1F2A95A2
:1009D000D2F70197A109B1098E219F21A023B1234C
:1009E0000097A105B10521F041E050E060E070E022
:1009F0004A295B296C297D294D835E836F83788723
:100A00008EE190E08E1B9F0B9C838B8312C03097EE
:100A100081F00E2E04C0EE0CFF1C001F111F0A9463
:100A2000D2F7ED82FE820F831887CE1ADF0ADC82AE
:100A3000CB821A82CE0101960E9471052896EAE0C7
:100A40000C94BA16EF92FF920F931F937B018C01C7
:100A500080E0E81680E0F80681E0080780E01807EB
:100A600088F48FEFE816F1040105110531F028F044
:100A700088E090E0A0E0B0E017C080E090E0A0E067
:100A8000B0E012C080E0E81680E0F80680E00807D9
:100A900081E0180728F088E190E0A0E0B0E004C011
:100AA00080E190E0A0E0B0E020E230E040E050E003
:100AB000281B390B4A0B5B0B04C016950795F7945E
:100AC000E7948A95D2F7F701E859FF4F8081281BF8
:100AD000310941095109C9011F910F91FF90EF9010
:100AE0000895DF92EF92FF920F931F93FC01E48031
:100AF000F58006811781D1808081823048F480E0C2
:100B000090E0A0E1B0E0E82AF92A0A2B1B2BA5C04F
:100B1000843009F49FC0823021F4EE24FF24870141
:100B200005C0E114F1040105110519F4E0E0F0E05D
:100B300096C0628173819FEF623879070CF05BC0C9
:100B400022E83FEF261B370B2A3131052CF020E03D
:100B500030E040E050E02AC0B801A701022E04C0F6
:100B600076956795579547950A94D2F781E090E07E
:100B7000A0E0B0E004C0880F991FAA1FBB1F2A95F0
:100B8000D2F70197A109B1098E219F21A023B1239A
:100B90000097A105B10521F081E090E0A0E0B0E070
:100BA0009A01AB01282B392B4A2B5B2BDA01C901A7
:100BB0008F779070A070B07080349105A105B10559
:100BC00039F427FF09C0205C3F4F4F4F5F4F04C0EF
:100BD000215C3F4F4F4F5F4FE0E0F0E02030A0E05E
:100BE0003A07A0E04A07A0E45A0710F0E1E0F0E07D
:100BF00079018A0127C06038710564F5FB01E1586D
:100C0000FF4FD801C7018F779070A070B07080340B
:100C10009105A105B10539F4E7FE0DC080E490E02F
:100C2000A0E0B0E004C08FE390E0A0E0B0E0E80E08
:100C3000F91E0A1F1B1F17FF05C016950795F7948D
:100C4000E794319687E016950795F794E7948A958F
:100C5000D1F705C0EE24FF248701EFEFF0E06E2FFF
:100C6000679566276795902F9F77D794DD24D79453
:100C70008E2F8695492F462B582F5D29B701CA0123
:100C80001F910F91FF90EF90DF900895FC01DB0121
:100C9000408151812281622F6F7770E0221F2227CD
:100CA000221F9381892F880F822B282F30E0991FD4
:100CB0009927991F11969C93119721153105A9F534
:100CC000411551056105710511F482E037C082E8D4
:100CD0009FEF13969C938E9312979A01AB0167E056
:100CE000220F331F441F551F6A95D1F783E08C9361
:100CF0000DC0220F331F441F551F12968D919C91DA
:100D00001397019713969C938E931297203080E04F
:100D1000380780E0480780E4580758F314962D936D
:100D20003D934D935C93179708952F3F310579F4C8
:100D3000411551056105710519F484E08C930895FE
:100D400064FF03C081E08C9312C01C9210C02F5727
:100D5000304013963C932E93129783E08C9387E058
:100D6000440F551F661F771F8A95D1F7706414963C
:100D70004D935D936D937C93179708951F93DC01BA
:100D8000FB019C91923008F447C08081823008F4C6
:100D900043C0943051F411961C91843099F58181AF
:100DA000682F70E0611B71093FC0843021F09230E0
:100DB00031F48230B9F18181882389F12DC01196F7
:100DC0001C9111978230F1F081811817D9F4129695
:100DD0002D913C911397828193818217930794F010
:100DE00028173907BCF014968D919D910D90BC91F8
:100DF000A02D2481358146815781281739074A075C
:100E00005B0718F4112341F00AC082179307A40767
:100E1000B50740F4112319F061E070E005C06FEFF1
:100E20007FEF02C060E070E0CB011F910895DF9377
:100E3000CF9300D00F92CDB7DEB79B838A83198200
:100E40000EC08981282F30E08A819B81FC01E20F4E
:100E5000F31F80810E94110889818F5F89838981B6
:100E6000282F30E08A819B81FC01E20FF31F8081F3
:100E7000882339F70F900F900F90CF91DF9108954D
:100E80000F931F93DF93CF9300D00F92CDB7DEB7B0
:100E90009B838A8319828981282F30E08A819B81F4
:100EA0008C01020F131F0E942B08F80180830FC0D2
:100EB00089818F5F89838981282F30E08A819B8196
:100EC0008C01020F131F0E942B08F8018083898177
:100ED000282F30E08A819B81FC01E20FF31F808183
:100EE000843231F78981282F30E08A819B81FC018F
:100EF000E20FF31F10820F900F900F90CF91DF91B0
:100F00001F910F910895DF93CF9300D000D00F92DF
:100F1000CDB7DEB79D838C831982CE0103960E94E4
:100F20003A088A838A818823D9F08981282F30E082
:100F30008C819D81FC01E20FF31F8B81808389816D
:100F40008F5F89838981882F90E09C0121503040F8
:100F50008C819D81FC01E20FF31F80818432E9F6D0
:100F60008981882F90E09C01215030408C819D81A7
:100F7000FC01E20FF31F10820F900F900F900F9063
:100F80000F90CF91DF910895DF93CF93CDB7DEB768
:100F9000AAE2B0E0EAE2F0E0808180618C93AAE20C
:100FA000B0E0EAE2F0E0808188608C93A0E4B0E0F9
:100FB000E0E4F0E080818F7B8C93A0E4B0E0E0E49B
:100FC000F0E080818F7E8C93A0E4B0E0E0E4F0E07C
:100FD00080818F7D8C93A0E4B0E0E0E4F0E080813C
:100FE000877F8C93A0E4B0E0E0E4F0E08081826051
:100FF0008C93A0E4B0E0E0E4F0E0808184608C9326
:10100000AAE2B0E0EAE2F0E080818B7F8C93E0E43A
:10101000F0E01082E9E2F0E08FEC8083CF91DF9185
:101020000895DF93CF930F92CDB7DEB78983EBE2BC
:10103000F0E08081829586958770882F90E081709E
:1010400090700097A1F3ECE2F0E0898180830F902B
:10105000CF91DF910895DF93CF93CDB7DEB7EBE269
:10106000F0E080818823DCF7ECE2F0E08081CF9132
:10107000DF910895DF93CF9300D00F92CDB7DEB705
:101080009B838A831982EBE2F0E08081882344F419
:10109000ECE2F0E08081EA81FB81808381E089835A
:1010A00089810F900F900F90CF91DF910895DF937A
:1010B000CF9300D0CDB7DEB789836A838981882F2B
:1010C00090E00097E1F4AFE4B0E0EFE4F0E080817D
:1010D0008E7F8C93AFE4B0E0EFE4F0E080818D7F11
:1010E0008C93AEE4B0E0EEE4F0E08081877F8C93F7
:1010F000AEE4B0E0EEE4F0E080818F7E8C93AEE46D
:10110000B0E0EEE4F0E08081887F8C93AEE4B0E064
:10111000EEE4F0E090818A81892B8C93AEE4B0E01C
:10112000EEE4F0E0808180648C93A9E5B0E0E9E52D
:10113000F0E0808180628C930F900F90CF91DF91CF
:101140000895DF93CF93CDB7DEB7AEE4B0E0EEE421
:10115000F0E08081887F8C93CF91DF910895DF93B9
:10116000CF930F92CDB7DEB78983AEE4B0E0EEE463
:10117000F0E08081887F8C93AEE4B0E0EEE4F0E0B4
:1011800090818981892B8C930F90CF91DF91089565
:10119000DF93CF9300D000D000D0CDB7DEB78091E1
:1011A00068018330E1F720916B0130916C018091EF
:1011B000690190916A01A901481B590BCA019C83DE
:1011C0008B8320916D0130916E0180916B01909124
:1011D0006C01A901481B590BCA019A838983898133
:1011E0009A812B813C81B9010E944D16CB019C0153
:1011F00084E690E0AC01249FC001259F900D349FB0
:10120000900D11249E838D838D8126960FB6F894C0
:10121000DEBF0FBECDBFCF91DF910895DF93CF9397
:10122000CDB7DEB7ECE4F0E080819181CF91DF9122
:101230000895DF93CF93CDB7DEB7ECE4F0E01182F1
:101240001082CF91DF910895DF93CF9300D000D02B
:10125000CDB7DEB79A838983809168018823F1F442
:10126000E6E4F0E0808180936F01E7E4F0E08081C4
:101270008093700180916F01282F30E08091700180
:10128000882F90E0982F8827822B932B90936A01C8
:101290008093690181E08093680146C08091680174
:1012A000813029F5E6E4F0E0808180936F01E7E486
:1012B000F0E080818093700180916F01282F30E0F1
:1012C00080917001882F90E0982F8827822B932B94
:1012D00090936C0180936B0182E080936801AEE48F
:1012E000B0E0EEE4F0E080818F7B8C931DC0E6E4FB
:1012F000F0E0808180936F01E7E4F0E080818093EB
:10130000700180916F01282F30E080917001882F4B
:1013100090E0982F8827822B932B90936E018093D7
:101320006D0182E0809368010F900F900F900F90F5
:10133000CF91DF910895DF93CF9300D000D00F922B
:10134000CDB7DEB789836A834B838981282F30E04C
:101350003D832C838C819D818130910521F12C81ED
:101360003D81223031052CF48C819D81009761F004
:1013700046C02C813D812230310521F18C819D8137
:101380008330910571F13BC0A3E5B0E0E3E5F0E007
:1013900080818F7B8C93A3E5B0E0E3E5F0E0808172
:1013A000877F8C932CC0A3E5B0E0E3E5F0E080817B
:1013B0008F7B8C93A3E5B0E0E3E5F0E0808188606B
:1013C0008C931DC0A3E5B0E0E3E5F0E0808180648C
:1013D0008C93A3E5B0E0E3E5F0E0808188608C9336
:1013E0000EC0A3E5B0E0E3E5F0E0808180648C937B
:1013F000A3E5B0E0E3E5F0E08081877F8C93A3E58F
:10140000B0E0E3E5F0E08081887F8C93A3E5B0E075
:10141000E3E5F0E090818A81892B8C93A3E5B0E02D
:10142000E3E5F0E080818F7C8C93A3E5B0E0E3E519
:10143000F0E08081282F8B81882F90E08295929513
:10144000907F9827807F9827822B8C930F900F9006
:101450000F900F900F90CF91DF910895DF93CF936E
:10146000CDB7DEB7A3E5B0E0E3E5F0E08081887FAB
:101470008C93CF91DF910895DF93CF930F92CDB7E7
:10148000DEB78983A3E5B0E0E3E5F0E08081887F03
:101490008C93A3E5B0E0E3E5F0E090818981892BAE
:1014A0008C930F90CF91DF910895DF93CF93CDB7B9
:1014B000DEB7AFE5B0E0EFE5F0E0808180688C93C7
:1014C000A9E5B0E0E9E5F0E0808181608C93CF91FF
:1014D000DF910895DF93CF93CDB7DEB7A9E5B0E0F4
:1014E000E9E5F0E080818E7F8C93CF91DF910895C4
:1014F000DF93CF9300D0CDB7DEB79A8389838981FC
:101500009A8190937701809376010F900F90CF91FD
:10151000DF910895DF93CF93CDB7DEB7AFE5B0E0AD
:10152000EFE5F0E0808180688C93A9E5B0E0E9E523
:10153000F0E0808182608C93CF91DF910895DF93FA
:10154000CF93CDB7DEB7A9E5B0E0E9E5F0E0808163
:101550008D7F8C93CF91DF910895DF93CF9300D04F
:10156000CDB7DEB79A83898389819A819093790177
:10157000809378010F900F90CF91DF910895DF93C2
:10158000CF930F92CDB7DEB78983ECE5F0E0898188
:1015900080830F90CF91DF910895EF92FF920F9388
:1015A0001F93DF93CF93CDB7DEB76D970FB6F89447
:1015B000DEBF0FBECDBF6F8B788F898F9A8F4B8F19
:1015C0008B8D282F30E03D8F2C8F8C8D9D8D83301F
:1015D000910529F12C8D3D8D243031055CF48C8DE5
:1015E0009D8D8130910589F02C8D3D8D2230310506
:1015F00089F023C08C8D9D8D84309105A9F02C8DB0
:101600003D8D25303105A9F018C081E090E09E8B1A
:101610008D8B13C088E090E09E8B8D8B0EC080E494
:1016200090E09E8B8D8B09C080E091E09E8B8D8B2E
:1016300004C080E094E09E8B8D8B8D899E89CC01C7
:10164000A0E0B0E020E432E44FE050E0BC01CD0186
:101650000E942E16DC01CB0120E032E14AE750E087
:10166000BC01CD010E947416DA01C901898B9A8BE5
:10167000AB8BBC8B89899A89AB89BC89BA2FA92F7E
:10168000982F88278D879E87AF87B88B8F89988DF5
:10169000A98DBA8D89879A87AB87BC8789859A85FA
:1016A000AB85BC852D853E854F855889BC01CD0114
:1016B0000E947416DA01C90180937101909372013E
:1016C000A0937301B093740189859A85AB85BC851D
:1016D0002D853E854F855889BC01CD010E94741629
:1016E000DC01CB018D839E83AF83B8876D817E81C2
:1016F0008F8198850E94A9047B018C016D857E8570
:101700008F8598890E94A9049B01AC01C801B7018B
:101710000E941903DC01CB01BC01CD0120E030E0C7
:1017200040E853E40E941F02DC01CB01BC01CD0163
:101730000E944900DC01CB0189839A83AB83BC837F
:10174000E2E5F0E010828D819E81AF81B88500973F
:10175000A105B105E1F08981819580937501E2E5EC
:10176000F0E0809175018083809171019091720108
:10177000A0917301B09174010196A11DB11D8093D8
:10178000710190937201A0937301B09374016D96EF
:101790000FB6F894DEBF0FBECDBFCF91DF911F9182
:1017A0000F91FF90EF900895DF93CF9300D000D07A
:1017B0000F92CDB7DEB789836A834B838A81282F46
:1017C00030E03D832C838C819D818230910531F006
:1017D0002C813D812330310589F022C0ECE5F0E019
:1017E0008981882F90E0982F882724E630E0B9017E
:1017F0000E946116CB01815080830FC0ECE5F0E0C0
:101800008981882F90E0982F882724E630E0B9015D
:101810000E946116CB01809580838B810E943C0AD7
:101820000F900F900F900F900F90CF91DF91089530
:10183000DF93CF9300D000D0CDB7DEB789836A8322
:101840008A81282F30E03C832B838B819C818230DE
:10185000910531F02B813C8123303105E1F036C018
:10186000ECE5F0E08981482F50E0CA019C01220F8D
:10187000331FC9019695982F882797958795821BC6
:10188000930B840F951F24E630E0B9010E94611686
:10189000CB0180831BC0ECE5F0E08981482F50E04C
:1018A000CA019C01220F331FC9019695982F8827E2
:1018B00097958795821B930B840F951F24E630E044
:1018C000B9010E946116CB01809580830F900F9023
:1018D0000F900F90CF91DF910895DF93CF93CDB705
:1018E000DEB727970FB6F894DEBF0FBECDBF8D834E
:1018F0008D81282F30E03F832E838E819F8183301E
:10190000910509F12E813F81243031055CF48E81EF
:101910009F818130910589F02E813F8122303105F0
:1019200079F017C08E819F818430910579F02E81E6
:101930003F812530310561F00CC081E08D8309C005
:1019400088E08D8306C080E48D8303C01D8201C0C2
:101950001D828D81882F90E0A0E0B0E020E032E190
:101960004AE750E0BC01CD010E947416DA01C901BA
:1019700089839A83AB83BC8389819A81AB81BC8143
:10198000BC01CD0127960FB6F894DEBF0FBECDBFC8
:10199000CF91DF910895DF93CF93CDB7DEB781E08C
:1019A00064E041E00E94970F81E065E041E00E9421
:1019B000970F81E066E040E00E94970F81E067E0CA
:1019C00041E00E94970F81E064E040E00E94970EA2
:1019D000ADE2B0E0EDE2F0E0808180658C93CF91E4
:1019E000DF910895DF93CF93CDB7DEB781E066E056
:1019F00041E00E94970FADE2B0E0EDE2F0E08081BF
:101A000080648C93CF91DF910895DF93CF930F92F1
:101A1000CDB7DEB78983EFE2F0E089818083EEE223
:101A2000F0E080818823DCF70F90CF91DF9108955B
:101A3000DF93CF93CDB7DEB7EEE2F0E0808188236D
:101A4000DCF7EFE2F0E08081CF91DF910895DF9342
:101A5000CF9300D0CDB7DEB79A8389830AC0E981DE
:101A6000FA8180810E94050D89819A8101969A836D
:101A70008983E981FA818081882389F70F900F900B
:101A8000CF91DF9108950F931F93DF93CF9300D0F1
:101A90000F92CDB7DEB79B838A8319828981282F65
:101AA00030E08A819B818C01020F131F0E94180D68
:101AB000F80180830FC089818F5F89838981282FF6
:101AC00030E08A819B818C01020F131F0E94180D48
:101AD000F80180838981282F30E08A819B81FC0175
:101AE000E20FF31F8081833231F78981282F30E0A4
:101AF0008A819B81FC01E20FF31F10820F900F90EF
:101B00000F90CF91DF911F910F910895DF93CF93A5
:101B100000D00F92CDB7DEB789838981282F30E0BE
:101B20003B832A838A819B818630910559F02A81E3
:101B30003B812730310571F08A819B818530910589
:101B400089F017C0ABE5B0E0EBE5F0E080818064A0
:101B50008C930FC0ABE5B0E0EBE5F0E080818068EE
:101B60008C9307C0ABE5B0E0EBE5F0E080818062EC
:101B70008C93AFE5B0E0EFE5F0E0808180688C9376
:101B80000F900F900F90CF91DF910895DF93CF9337
:101B900000D000D000D0CDB7DEB789836A838A81B8
:101BA000863009F05CC08981282F30E03E832D8388
:101BB0008D819E818130910509F442C02D813E8145
:101BC000223031052CF48D819E81009761F0A6C0F2
:101BD0002D813E812230310521F18D819E8183301E
:101BE000910581F09BC0A5E5B0E0E5E5F0E08081DE
:101BF0008E7F8C93A5E5B0E0E5E5F0E080818D7FF8
:101C00008C938CC0A5E5B0E0E5E5F0E080818160D3
:101C10008C93A5E5B0E0E5E5F0E0808182608C93EF
:101C20007DC0A5E5B0E0E5E5F0E080818E7F8C9396
:101C3000A5E5B0E0E5E5F0E0808182608C936EC0C0
:101C4000A5E5B0E0E5E5F0E0808181608C93A5E555
:101C5000B0E0E5E5F0E080818D7F8C935FC08A8104
:101C6000873009F05BC08981282F30E03C832B83CB
:101C70008B819C818130910509F442C02B813C818C
:101C8000223031052CF48B819C81009761F046C095
:101C90002B813C812230310521F18B819C81833065
:101CA000910581F03BC0A5E5B0E0E5E5F0E080817D
:101CB0008B7F8C93A5E5B0E0E5E5F0E08081877F40
:101CC0008C932CC0A5E5B0E0E5E5F0E08081846070
:101CD0008C93A5E5B0E0E5E5F0E0808188608C9329
:101CE0001DC0A5E5B0E0E5E5F0E080818B7F8C9339
:101CF000A5E5B0E0E5E5F0E0808188608C930EC05A
:101D0000A5E5B0E0E5E5F0E0808184608C93A5E591
:101D1000B0E0E5E5F0E08081877F8C9326960FB6F2
:101D2000F894DEBF0FBECDBFCF91DF910895DF9352
:101D3000CF93CDB7DEB727970FB6F894DEBF0FBEAF
:101D4000CDBF89836A834B838B81882309F074C05C
:101D50008981282F30E03F832E838E819F818130BF
:101D6000910559F12E813F81223031052CF48E816D
:101D70009F81009769F0D2C02E813F8122303105CA
:101D800089F18E819F818330910509F440C0C6C0DE
:101D9000ABE3B0E0EBE3F0E08081482F8A81282FAD
:101DA00030E081E090E0022E02C0880F991F0A9473
:101DB000E2F7809584238C93B1C0A8E3B0E0E8E318
:101DC000F0E08081482F8A81282F30E081E090E088
:101DD000022E02C0880F991F0A94E2F7809584238F
:101DE0008C939CC0A5E3B0E0E5E3F0E08081482F50
:101DF0008A81282F30E081E090E0022E02C0880F17
:101E0000991F0A94E2F7809584238C9387C0A2E3FC
:101E1000B0E0E2E3F0E08081482F8A81282F30E0B3
:101E200081E090E0022E02C0880F991F0A94E2F729
:101E3000809584238C9372C08B81813009F06EC0B1
:101E40008981282F30E03D832C838C819D818130D6
:101E5000910549F12C813D81223031052CF48C8192
:101E60009D81009761F05AC02C813D81223031055F
:101E700071F18C819D8183309105E9F14FC0ABE315
:101E8000B0E0EBE3F0E08081482F8A81282F30E03A
:101E900081E090E0022E02C0880F991F0A94E2F7B9
:101EA000842B8C933BC0A8E3B0E0E8E3F0E08081B2
:101EB000482F8A81282F30E081E090E0022E02C076
:101EC000880F991F0A94E2F7842B8C9327C0A5E30F
:101ED000B0E0E5E3F0E08081482F8A81282F30E0F0
:101EE00081E090E0022E02C0880F991F0A94E2F769
:101EF000842B8C9313C0A2E3B0E0E2E3F0E0808196
:101F0000482F8A81282F30E081E090E0022E02C025
:101F1000880F991F0A94E2F7842B8C9327960FB6AB
:101F2000F894DEBF0FBECDBFCF91DF910895DF9350
:101F3000CF93CDB7DEB727970FB6F894DEBF0FBEAD
:101F4000CDBF89836A834B838B81882309F074C05A
:101F50008981282F30E03F832E838E819F818130BD
:101F6000910559F12E813F81223031052CF48E816B
:101F70009F81009769F0D2C02E813F8122303105C8
:101F800089F18E819F818330910509F440C0C6C0DC
:101F9000AAE3B0E0EAE3F0E08081482F8A81282FAD
:101FA00030E081E090E0022E02C0880F991F0A9471
:101FB000E2F7809584238C93B1C0A7E3B0E0E7E318
:101FC000F0E08081482F8A81282F30E081E090E086
:101FD000022E02C0880F991F0A94E2F7809584238D
:101FE0008C939CC0A4E3B0E0E4E3F0E08081482F50
:101FF0008A81282F30E081E090E0022E02C0880F15
:10200000991F0A94E2F7809584238C9387C0A1E3FB
:10201000B0E0E1E3F0E08081482F8A81282F30E0B2
:1020200081E090E0022E02C0880F991F0A94E2F727
:10203000809584238C9372C08B81813009F06EC0AF
:102040008981282F30E03D832C838C819D818130D4
:10205000910549F12C813D81223031052CF48C8190
:102060009D81009761F05AC02C813D81223031055D
:1020700071F18C819D8183309105E9F14FC0AAE314
:10208000B0E0EAE3F0E08081482F8A81282F30E039
:1020900081E090E0022E02C0880F991F0A94E2F7B7
:1020A000842B8C933BC0A7E3B0E0E7E3F0E08081B2
:1020B000482F8A81282F30E081E090E0022E02C074
:1020C000880F991F0A94E2F7842B8C9327C0A4E30E
:1020D000B0E0E4E3F0E08081482F8A81282F30E0EF
:1020E00081E090E0022E02C0880F991F0A94E2F767
:1020F000842B8C9313C0A1E3B0E0E1E3F0E0808196
:10210000482F8A81282F30E081E090E0022E02C023
:10211000880F991F0A94E2F7842B8C9327960FB6A9
:10212000F894DEBF0FBECDBFCF91DF910895DF934E
:10213000CF9300D000D00F92CDB7DEB78A836B83E8
:102140008A81282F30E03D832C834C815D81413092
:10215000510541F18C819D818230910534F42C81AF
:102160003D812115310561F052C04C815D814230C5
:10217000510551F18C819D8183309105B9F147C0A2
:10218000E9E3F0E08081282F30E08B81882F90E018
:10219000A90102C0559547958A95E2F7CA01817059
:1021A000898335C0E6E3F0E08081282F30E08B8121
:1021B000882F90E0A90102C0559547958A95E2F7CE
:1021C000CA018170898323C0E3E3F0E08081282F76
:1021D00030E08B81882F90E0A90102C0559547958A
:1021E0008A95E2F7CA018170898311C0E0E3F0E0CB
:1021F0008081282F30E08B81882F90E0A90102C0D8
:10220000559547958A95E2F7CA018170898389813E
:102210000F900F900F900F900F90CF91DF91089536
:10222000DF93CF9300D000D0CDB7DEB789836A8328
:102230008981282F30E03C832B838B819C818130E6
:102240009105D1F02B813C81223031052CF48B811A
:102250009C81009761F01EC02B813C8122303105AA
:1022600081F08B819C818330910581F013C0EAE37A
:10227000F0E08A8180830EC0E7E3F0E08A8180830A
:1022800009C0E4E3F0E08A81808304C0E1E3F0E088
:102290008A8180830F900F900F900F90CF91DF91E4
:1022A0000895DF93CF9300D000D0CDB7DEB78983F8
:1022B0006A838981282F30E03C832B838B819C812A
:1022C00081309105D1F02B813C81223031052CF4F5
:1022D0008B819C81009761F01EC02B813C81223054
:1022E000310581F08B819C818330910581F013C091
:1022F000EBE3F0E08A8180830EC0E8E3F0E08A81BE
:10230000808309C0E5E3F0E08A81808304C0E2E3D2
:10231000F0E08A8180830F900F900F900F90CF9103
:10232000DF910895DF93CF9300D000D000D0CDB7D8
:10233000DEB789836A83A6E2B0E0E6E2F0E080815E
:1023400080688C93A6E2B0E0E6E2F0E08081877FCF
:102350008C93A7E2B0E0E7E2F0E080818F7D8C9380
:102360008981282F30E03E832D838D819E818330AB
:10237000910509F46AC02D813E812430310584F431
:102380008D819E8181309105A1F12D813E81223088
:1023900031050CF044C08D819E810097A1F0ACC046
:1023A0002D813E812530310509F47BC08D819E81D0
:1023B000853091050CF45FC02D813E8126303105BA
:1023C00009F485C099C0A6E2B0E0E6E2F0E08081C1
:1023D00081608C93A6E2B0E0E6E2F0E080818D7F40
:1023E0008C93A6E2B0E0E6E2F0E080818B7F8C93F4
:1023F00083C0A6E2B0E0E6E2F0E080818E7F8C93BD
:10240000A6E2B0E0E6E2F0E0808182608C93A6E292
:10241000B0E0E6E2F0E080818B7F8C936DC0A6E2B5
:10242000B0E0E6E2F0E0808181608C93A6E2B0E06B
:10243000E6E2F0E0808182608C93A6E2B0E0E6E222
:10244000F0E080818B7F8C9357C0A6E2B0E0E6E29B
:10245000F0E080818E7F8C93A6E2B0E0E6E2F0E0CF
:1024600080818D7F8C93A6E2B0E0E6E2F0E080818F
:1024700084608C9341C0A6E2B0E0E6E2F0E08081A7
:1024800081608C93A6E2B0E0E6E2F0E080818D7F8F
:102490008C93A6E2B0E0E6E2F0E0808184608C9369
:1024A0002BC0A6E2B0E0E6E2F0E080818E7F8C9364
:1024B000A6E2B0E0E6E2F0E0808182608C93A6E2E2
:1024C000B0E0E6E2F0E0808184608C9315C0A6E283
:1024D000B0E0E6E2F0E0808181608C93A6E2B0E0BB
:1024E000E6E2F0E0808182608C93A6E2B0E0E6E272
:1024F000F0E0808184608C938A81282F30E03C83D7
:102500002B838B819C8181309105C1F02B813C8193
:102510002330310511F18B819C81009761F5A7E291
:10252000B0E0E7E2F0E080818F7B8C93A7E2B0E03F
:10253000E7E2F0E080818F778C931DC0A7E2B0E0E6
:10254000E7E2F0E080818F7B8C93A7E2B0E0E7E2E6
:10255000F0E0808180688C930EC0A7E2B0E0E7E2F3
:10256000F0E0808180648C93A7E2B0E0E7E2F0E0E5
:10257000808180688C9326960FB6F894DEBF0FBEDC
:10258000CDBFCF91DF910895DF93CF930F92CDB759
:10259000DEB78983A7E2B0E0E7E2F0E08081807EE9
:1025A0008C93898187708983A7E2B0E0E7E2F0E04D
:1025B00090818981892B8C93A6E2B0E0E6E2F0E07D
:1025C000808180648C93E6E2F0E08081882F90E047
:1025D000807190700097B9F3A6E2B0E0E6E2F0E017
:1025E000808180618C93E4E2F0E0808191810F90A2
:1025F000CF91DF910895DF93CF9300D000D000D02A
:10260000CDB7DEB780E00E94C4129E838D838D819A
:102610009E81CC01A0E0B0E028E833E140E050E04A
:10262000BC01CD010E942E16DC01CB01072E7AE001
:10263000B695A795979587957A95D1F7702D9C8338
:102640008B838B819C812AE030E0B9010E944D167A
:10265000CB019A83898389819A8126960FB6F89453
:10266000DEBF0FBECDBFCF91DF910895DF93CF9333
:10267000CDB7DEB783E064E041E00E94970F83E0CE
:1026800062E040E00E94970F86E00E94860D81E0A4
:1026900066E00E94C60DEFE4F0E01082CF91DF917A
:1026A0000895DF93CF93CDB7DEB768970FB6F89450
:1026B000DEBF0FBECDBF83E064E041E00E94970E15
:1026C00080E090E0A0E7B1E48D8B9E8BAF8BB88F5C
:1026D0006D897E898F89988D2BEA3AEA4AE250E427
:1026E0000E941F02DC01CB01898B9A8BAB8BBC8BC8
:1026F00069897A898B899C8920E030E040E85FE332
:102700000E94250488231CF481E0888B91C069898C
:102710007A898B899C8920E030E04FE753E40E945E
:10272000C50318160CF07BC06D897E898F89988D42
:1027300020E030E04AE754E40E941903DC01CB01B9
:102740008C879D87AE87BF876C857D858E859F85AD
:1027500020E030E04AEF54E40E941F02DC01CB018C
:1027600088879987AA87BB87688579858A859B85AD
:1027700020E030E040E85FE30E94250488232CF449
:1027800081E090E09F838E833FC0688579858A854C
:102790009B8520E03FEF4FE757E40E94C5031816E2
:1027A0004CF56C857D858E859F8520E030E040E28C
:1027B00051E40E941F02DC01CB01BC01CD010E944B
:1027C0004900DC01CB019F838E830FC088EC90E031
:1027D0009D838C838C819D810197F1F79D838C83F0
:1027E0008E819F8101979F838E838E819F81009729
:1027F00069F724C0688579858A859B850E94490090
:10280000DC01CB019F838E838E819F819B838A8392
:102810008A819B810197F1F79B838A830FC0698925
:102820007A898B899C890E944900DC01CB01888BC5
:102830008889898389818A95F1F7898383E064E0B7
:1028400040E00E94970E68960FB6F894DEBF0FBE68
:10285000CDBFCF91DF9108951F920F920FB60F92C7
:1028600011242F933F934F935F936F937F938F9395
:102870009F93AF93BF93EF93FF93DF93CF93CDB726
:10288000DEB780917C01813061F40E94A1080E9432
:102890000E0990937B0180937A010E94190910928E
:1028A0007C0180917C01882331F481E00E94AF0893
:1028B00081E080937C01CF91DF91FF91EF91BF91F7
:1028C000AF919F918F917F916F915F914F913F91C8
:1028D0002F910F900FBE0F901F901895DF93CF93FD
:1028E000CDB7DEB780917A0190917B0120ED31E088
:1028F000B9010E944D16CB01CF91DF910895DF936E
:10290000CF93CDB7DEB7CF91DF910895DF93CF930B
:1029100000D000D0CDB7DEB789838981282F30E081
:102920003C832B838B819C818830910509F470C096
:102930002B813C81293031055CF58B819C81843071
:10294000910509F459C02B813C81253031059CF457
:102950008B819C818230910509F448C02B813C8198
:10296000233031050CF045C08B819C81813091056D
:1029700009F439C067C02B813C812630310509F448
:1029800041C08B819C81873091050CF03EC037C0DF
:102990002B813C812C30310509F446C08B819C8110
:1029A0008D3091055CF42B813C812A303105B1F1E9
:1029B0008B819C818B309105A4F52DC02B813C81AE
:1029C0002E303105B9F18B819C818E3091057CF1DF
:1029D0002B813C812F30310579F18B819C818031B5
:1029E000910569F12FC097E09A832EC028E02A83D1
:1029F0002BC039E03A8328C085E28A8325C094E061
:102A00009A8322C025E02A831FC036E03A831CC087
:102A10008AE28A8319C091E09A8316C022E02A8351
:102A200013C033E03A8310C08DE28A830DC090E278
:102A30009A830AC01A8208C02DE32A8305C03BE2AC
:102A40003A8302C089818A838A810F900F900F9008
:102A50000F90CF91DF910895DF93CF9300D0CDB742
:102A6000DEB71A8242C08A81282F30E080E190E0F0
:102A700002C0880F991F2A95E2F7982F82E0692FEC
:102A80000E9410118A81282F30E080E190E002C07E
:102A9000880F991F2A95E2F7982F909582E0692F69
:102AA0000E94511119821BC082E069810E94971017
:102AB000882391F48981882F90E0880F991F880FCF
:102AC000991F982F8A81890F8F5F0E9486140F901B
:102AD0000F90CF91DF91089589818F5F89838981DC
:102AE000843010F38A818F5F8A838A81843008F46E
:102AF000BACFB7CFDF93CF93CDB7DEB767970FB617
:102B0000F894DEBF0FBECDBF80E060E040E00E94E1
:102B1000970F83E061E041E00E94970F85E060E05D
:102B20000E9492110E94C4070E947F140E943613D3
:102B30000E942C158F878F858A3020F48F85805DC9
:102B40000E94110880E090E0A6E9B3E48B879C879F
:102B5000AD87BE876B857C858D859E8520E030E0C6
:102B60004AEF54E40E941F02DC01CB018F83988757
:102B7000A987BA876F81788589859A8520E030E0BA
:102B800040E85FE30E94250488232CF481E090E074
:102B90009E838D833FC06F81788589859A8520E0EB
:102BA0003FEF4FE757E40E94C50318164CF56B85BD
:102BB0007C858D859E8520E030E040E251E40E94D6
:102BC0001F02DC01CB01BC01CD010E944900DC01E8
:102BD000CB019E838D830FC088EC90E09C838B8318
:102BE0008B819C810197F1F79C838B838D819E81E2
:102BF00001979E838D838D819E81009769F714C014
:102C00006F81788589859A850E944900DC01CB0116
:102C10009E838D838D819E819A83898389819A8108
:102C20000197F1F79A8389838F858D3309F080CFDF
:102C300084E50E9411080E94FB12998B888B888979
:102C400099899E012C5E3F4FB9014AE050E00E94F5
:102C5000CD16CE0144960E941707EACF629FD0019D
:102C6000739FF001829FE00DF11D649FE00DF11D47
:102C7000929FF00D839FF00D749FF00D659FF00DF6
:102C80009927729FB00DE11DF91F639FB00DE11DE3
:102C9000F91FBD01CF0111240895AA1BBB1B51E1EF
:102CA00007C0AA1FBB1FA617B70710F0A61BB70BBC
:102CB000881F991F5A95A9F780959095BC01CD0161
:102CC000089597FB092E07260AD077FD04D0E5DF8B
:102CD00006D000201AF4709561957F4F0895F6F79D
:102CE000909581959F4F0895A1E21A2EAA1BBB1BB8
:102CF000FD010DC0AA1FBB1FEE1FFF1FA217B307C8
:102D0000E407F50720F0A21BB30BE40BF50B661FDD
:102D1000771F881F991F1A9469F7609570958095A1
:102D200090959B01AC01BD01CF0108952F923F9278
:102D30004F925F926F927F928F929F92AF92BF92CB
:102D4000CF92DF92EF92FF920F931F93CF93DF9377
:102D5000CDB7DEB7CA1BDB0B0FB6F894DEBF0FBED4
:102D6000CDBF09942A88398848885F846E847D8421
:102D70008C849B84AA84B984C884DF80EE80FD8023
:102D80000C811B81AA81B981CE0FD11D0FB6F89499
:102D9000DEBF0FBECDBFED010895FB019F01E8949A
:102DA0004230C4F04532B4F44A3029F497FB1EF4A3
:102DB000909581959F4F642F77270E944D16805DD7
:102DC0008A330CF0895D8193CB010097A1F716F44B
:102DD0005DE251931082C9010C94EE16DC01FC01F6
:102DE000672F71917723E1F7329704C07C916D933F
:102DF00070836291AE17BF07C8F30895F894FFCFB0
:102E000000000000000000000001020203030303B1
:102E1000040404040404040405050505050505056A
:102E2000050505050505050506060606060606064A
:102E30000606060606060606060606060606060632
:102E4000060606060606060607070707070707071A
:102E50000707070707070707070707070707070702
:102E600007070707070707070707070707070707F2
:102E700007070707070707070707070707070707E2
:102E800007070707070707070808080808080808CA
:102E900008080808080808080808080808080808B2
:102EA00008080808080808080808080808080808A2
:102EB0000808080808080808080808080808080892
:102EC0000808080808080808080808080808080882
:102ED0000808080808080808080808080808080872
:102EE0000808080808080808080808080808080862
:102EF0000808080808080808080808080808080852
:082F0000080808080808080889
:00000001FF
