:100000000C942A000C9447000C9447000C94470071
:100010000C9447000C9447000C9447000C94470044
:100020000C9447000C9447000C9447000C948E09E4
:100030000C9447000C9447000C9447000C94470024
:100040000C9447000C9447000C9447000C94470014
:100050000C94470011241FBECFE5D8E0DEBFCDBF12
:1000600011E0A0E6B0E0EAEAFCE302C005900D92E0
:10007000AA39B107D9F711E0AAE9B1E001C01D9290
:10008000A63AB107E1F70E94AE1B0C94531E0C94E4
:100090000000EF92FF920F931F937B018C0120E0F1
:1000A00030E040E05FE40E94F50388238CF0C80153
:1000B000B70120E030E040E05FE40E94C1010E940F
:1000C00055049B01AC01205030404040504806C0D0
:1000D000C801B7010E9455049B01AC01B901CA01D6
:1000E0001F910F91FF90EF900895A0E0B0E0EBE733
:1000F000F0E00C94F61DDC012B01FA019C9192308A
:1001000008F439C1EB018881823008F433C194309E
:1001100069F4843009F02FC111969C91119789815F
:10012000981709F428C1AFE8B0E025C1843009F47C
:1001300021C18230A9F4923009F01DC19A01AD01AC
:1001400088E0EA010990AE01E90109929E0181501F
:10015000C1F7E201898111969C918923818308C1AD
:10016000923009F407C112962D903C901397EB0141
:100170008A819B811496AD90BD90CD90DC901797AD
:10018000EC80FD800E811F819101281B390BB90184
:1001900037FF04C066277727621B730B6032710537
:1001A0000CF061C0121613066CF537014801062EDB
:1001B00004C096948794779467940A94D2F721E0C8
:1001C00030E040E050E004C0220F331F441F551FB1
:1001D0006A95D2F721503040404050402E213F21B7
:1001E00040235123211531054105510521F021E01E
:1001F00030E040E050E079018A01E628F72808293C
:1002000019293CC0232BD1F1260E371E350146019A
:10021000062E04C096948794779467940A94D2F734
:1002200021E030E040E050E004C0220F331F441FC3
:10023000551F6A95D2F721503040404050402A2146
:100240003B214C215D21211531054105510521F04E
:1002500021E030E040E050E059016A01A628B728CB
:10026000C828D9280BC0821593052CF01C01AA249C
:10027000BB24650103C0EE24FF24870111969C91E5
:10028000D20111968C91981709F445C0992339F041
:10029000A80197012A193B094C095D0906C0A6016E
:1002A00095012E193F09400B510B57FD08C01182D3
:1002B0003382228224833583468357831DC081E0A5
:1002C00081833382228288279927DC01821B930B4A
:1002D000A40BB50B84839583A683B7830DC0220F2F
:1002E000331F441F551F24833583468357838281E0
:1002F000938101979383828324813581468157813D
:10030000DA01C9010197A109B1098F5F9F4FAF4F72
:10031000BF4328F30BC0918333822282EA0CFB1C7B
:100320000C1D1D1DE482F5820683178383E0808304
:10033000248135814681578157FF1AC0C901AA27F8
:1003400097FDA095BA2F81709070A070B0705695EF
:10035000479537952795822B932BA42BB52B848318
:100360009583A683B7838281938101969383828349
:10037000DF0101C0D201CD01CDB7DEB7E2E10C94BF
:10038000121EA0E2B0E0E7ECF1E00C94021E6983DB
:100390007A838B839C832D833E834F835887E9E048
:1003A000EE2EF12CEC0EFD1ECE010196B7010E943F
:1003B00046068E010F5E1F4FCE010596B8010E94C2
:1003C00046068A8991E089278A8BC701B801AE0168
:1003D000475E5F4F0E9475000E947105A096E6E09F
:1003E0000C941E1EA0E2B0E0E8EFF1E00C94021EB7
:1003F00069837A838B839C832D833E834F835887C5
:10040000F9E0EF2EF12CEC0EFD1ECE010196B701A6
:100410000E9446068E010F5E1F4FCE010596B80161
:100420000E944606C701B801AE01475E5F4F0E94B9
:1004300075000E947105A096E6E00C941E1EA0E2D5
:10044000B0E0E5E2F2E00C94F61D69837A838B83D9
:100450009C832D833E834F835887CE010196BE0136
:10046000675F7F4F0E944606CE010596BE016F5E14
:100470007F4F0E9446069985923088F089898230A4
:10048000C8F0943019F4823051F404C0843029F457
:10049000923081F48FE890E0C6C0923049F420E0B9
:1004A0009A858A89981321E02A87CE010996BBC0D4
:1004B000823049F420E09A858A89981321E02A8BBA
:1004C000CE014196B0C02D843E844F8458886D88FB
:1004D0007E888F88988CEE24FF248701AA24BB2471
:1004E000650140E050E060E070E0E0E0F0E0C10174
:1004F00081709070892BE9F0E60CF71C081D191D1E
:100500009A01AB012A0D3B1D4C1D5D1D80E090E062
:10051000A0E0B0E0E614F7040805190520F481E036
:1005200090E0A0E0B0E0BA01A901480F591F6A1F8E
:100530007B1FAA0CBB1CCC1CDD1C97FE08C081E0F5
:1005400090E0A0E0B0E0A82AB92ACA2ADB2A3196B6
:10055000E032F10549F0660C771C881C991C569412
:10056000479437942794C3CFFA85EA892B893C892D
:100570008B859C85280F391F2E5F3F4F17C0CA01FE
:1005800081709070892B61F016950795F794E79428
:1005900080E090E0A0E0B0E8E82AF92A0A2B1B2BC3
:1005A00076956795579547952F5F3F4F77FDE7CF36
:1005B0000CC0440F551F661F771F17FD4160EE0CDE
:1005C000FF1C001F111F21503040403090E05907A0
:1005D00090E0690790E4790760F32B8F3C8FDB0193
:1005E000CA018F779070A070B07080349105A1051A
:1005F000B10561F447FD0AC0E114F10401051105DC
:1006000029F0405C5F4F6F4F7F4F40781A8EFE1786
:1006100011F081E08A8F4D8F5E8F6F8F78A383E01A
:10062000898FCE0149960E947105A096E2E10C9453
:10063000121EA8E1B0E0EFE1F3E00C94FE1D698327
:100640007A838B839C832D833E834F835887B9E0C5
:10065000EB2EF12CEC0EFD1ECE010196B7010E948F
:1006600046068E010F5E1F4FCE010596B8010E940F
:1006700046062985223008F47EC03989323010F4CC
:10068000B8017CC08A859A8989278A87243011F02D
:10069000223031F4231709F06EC06FE870E06EC0AD
:1006A000343039F41D861E861F86188A1C861B86E8
:1006B00004C0323021F484E08987B7015FC02B8504
:1006C0003C858B899C89281B390B3C872B87ED84C3
:1006D000FE840F851889AD88BE88CF88D88CEA142F
:1006E000FB040C051D0540F4EE0CFF1C001F111F40
:1006F000215030403C872B8720E030E040E050E044
:1007000080E090E0A0E0B0E460E070E0EA14FB0478
:100710000C051D0540F0282B392B4A2B5B2BEA18C2
:10072000FB080C091D09B695A79597958795EE0CC2
:10073000FF1C001F111F6F5F7F4F6F31710531F775
:10074000DA01C9018F779070A070B0708034910584
:10075000A105B10561F427FD0AC0E114F10401050A
:10076000110529F0205C3F4F4F4F5F4F20782D87B8
:100770003E874F87588BBE01675F7F4FCB010E943A
:1007800071056896EAE00C941A1EA8E1B0E0EBEC63
:10079000F3E00C94021E69837A838B839C832D8300
:1007A0003E834F83588789E0E82EF12CEC0EFD1E26
:1007B000CE010196B7010E9446068E010F5E1F4FC3
:1007C000CE010596B8010E9446068985823040F028
:1007D0008989823028F0C701B8010E94BE0601C095
:1007E0008FEF6896E6E00C941E1EA8E1B0E0EBEFF8
:1007F000F3E00C94021E69837A838B839C832D83A0
:100800003E834F83588789E0E82EF12CEC0EFD1EC5
:10081000CE010196B7010E9446068E010F5E1F4F62
:10082000CE010596B8010E9446068985823040F0C7
:100830008989823028F0C701B8010E94BE0601C034
:100840008FEF6896E6E00C941E1EA8E1B0E0EBE2A4
:10085000F4E00C94021E69837A838B839C832D833E
:100860003E834F83588789E0E82EF12CEC0EFD1E65
:10087000CE010196B7010E9446068E010F5E1F4F02
:10088000CE010596B8010E9446068985823040F067
:100890008989823028F0C701B8010E94BE0601C0D4
:1008A00081E06896E6E00C941E1EACE0B0E0EBE55B
:1008B000F4E00C94061E69837A838B839C83CE01BB
:1008C0000196BE016B5F7F4F0E9446068D8182308C
:1008D00061F1823050F1843021F48E81882351F10E
:1008E0002EC02F81388537FD20C06E812F31310514
:1008F0001CF06623F9F023C08EE190E0821B930B7D
:1009000029853A854B855C8504C056954795379572
:1009100027958A95D2F76623B1F05095409530958A
:1009200021953F4F4F4F5F4F0EC020E030E040E039
:1009300050E009C02FEF3FEF4FEF5FE704C020E02A
:1009400030E040E050E8B901CA012C96E2E00C9496
:10095000221EA8E0B0E0EFEAF4E00C94FE1D7B015B
:100960008C01611571058105910519F482E0898377
:1009700060C083E089838EE1C82ED12CDC82CB82DB
:10098000ED82FE820F831887C801B7010E942205FD
:10099000FC013197F7FF3BC0222733272E1B3F0B6B
:1009A00057016801022E04C0D694C794B794A79447
:1009B0000A94D2F740E050E060E070E081E090E01F
:1009C000A0E0B0E004C0880F991FAA1FBB1F2A95A2
:1009D000D2F70197A109B1098E219F21A023B1234C
:1009E0000097A105B10521F041E050E060E070E022
:1009F0004A295B296C297D294D835E836F83788723
:100A00008EE190E08E1B9F0B9C838B8312C03097EE
:100A100081F00E2E04C0EE0CFF1C001F111F0A9463
:100A2000D2F7ED82FE820F831887CE1ADF0ADC82AE
:100A3000CB821A82CE0101960E9471052896EAE0C7
:100A40000C941A1EEF92FF920F931F937B018C015F
:100A500080E0E81680E0F80681E0080780E01807EB
:100A600088F48FEFE816F1040105110531F028F044
:100A700088E090E0A0E0B0E017C080E090E0A0E067
:100A8000B0E012C080E0E81680E0F80680E00807D9
:100A900081E0180728F088E190E0A0E0B0E004C011
:100AA00080E190E0A0E0B0E020E230E040E050E003
:100AB000281B390B4A0B5B0B04C016950795F7945E
:100AC000E7948A95D2F7F701E956FF4F8081281BFA
:100AD000310941095109C9011F910F91FF90EF9010
:100AE0000895DF92EF92FF920F931F93FC01E48031
:100AF000F58006811781D1808081823048F480E0C2
:100B000090E0A0E1B0E0E82AF92A0A2B1B2BA5C04F
:100B1000843009F49FC0823021F4EE24FF24870141
:100B200005C0E114F1040105110519F4E0E0F0E05D
:100B300096C0628173819FEF623879070CF05BC0C9
:100B400022E83FEF261B370B2A3131052CF020E03D
:100B500030E040E050E02AC0B801A701022E04C0F6
:100B600076956795579547950A94D2F781E090E07E
:100B7000A0E0B0E004C0880F991FAA1FBB1F2A95F0
:100B8000D2F70197A109B1098E219F21A023B1239A
:100B90000097A105B10521F081E090E0A0E0B0E070
:100BA0009A01AB01282B392B4A2B5B2BDA01C901A7
:100BB0008F779070A070B07080349105A105B10559
:100BC00039F427FF09C0205C3F4F4F4F5F4F04C0EF
:100BD000215C3F4F4F4F5F4FE0E0F0E02030A0E05E
:100BE0003A07A0E04A07A0E45A0710F0E1E0F0E07D
:100BF00079018A0127C06038710564F5FB01E1586D
:100C0000FF4FD801C7018F779070A070B07080340B
:100C10009105A105B10539F4E7FE0DC080E490E02F
:100C2000A0E0B0E004C08FE390E0A0E0B0E0E80E08
:100C3000F91E0A1F1B1F17FF05C016950795F7948D
:100C4000E794319687E016950795F794E7948A958F
:100C5000D1F705C0EE24FF248701EFEFF0E06E2FFF
:100C6000679566276795902F9F77D794DD24D79453
:100C70008E2F8695492F462B582F5D29B701CA0123
:100C80001F910F91FF90EF90DF900895FC01DB0121
:100C9000408151812281622F6F7770E0221F2227CD
:100CA000221F9381892F880F822B282F30E0991FD4
:100CB0009927991F11969C93119721153105A9F534
:100CC000411551056105710511F482E037C082E8D4
:100CD0009FEF13969C938E9312979A01AB0167E056
:100CE000220F331F441F551F6A95D1F783E08C9361
:100CF0000DC0220F331F441F551F12968D919C91DA
:100D00001397019713969C938E931297203080E04F
:100D1000380780E0480780E4580758F314962D936D
:100D20003D934D935C93179708952F3F310579F4C8
:100D3000411551056105710519F484E08C930895FE
:100D400064FF03C081E08C9312C01C9210C02F5727
:100D5000304013963C932E93129783E08C9387E058
:100D6000440F551F661F771F8A95D1F7706414963C
:100D70004D935D936D937C93179708951F93DC01BA
:100D8000FB019C91923008F447C08081823008F4C6
:100D900043C0943051F411961C91843099F58181AF
:100DA000682F70E0611B71093FC0843021F09230E0
:100DB00031F48230B9F18181882389F12DC01196F7
:100DC0001C9111978230F1F081811817D9F4129695
:100DD0002D913C911397828193818217930794F010
:100DE00028173907BCF014968D919D910D90BC91F8
:100DF000A02D2481358146815781281739074A075C
:100E00005B0718F4112341F00AC082179307A40767
:100E1000B50740F4112319F061E070E005C06FEFF1
:100E20007FEF02C060E070E0CB011F910895DF9377
:100E3000CF9300D00F92CDB7DEB79B838A83198200
:100E40000EC08981282F30E08A819B81FC01E20F4E
:100E5000F31F80810E94110889818F5F89838981B6
:100E6000282F30E08A819B81FC01E20FF31F8081F3
:100E7000882339F70F900F900F90CF91DF9108954D
:100E80000F931F93DF93CF9300D00F92CDB7DEB7B0
:100E90009B838A8319828981282F30E08A819B81F4
:100EA0008C01020F131F0E942B08F80180830FC0D2
:100EB00089818F5F89838981282F30E08A819B8196
:100EC0008C01020F131F0E942B08F8018083898177
:100ED000282F30E08A819B81FC01E20FF31F808183
:100EE000843231F78981282F30E08A819B81FC018F
:100EF000E20FF31F10820F900F900F90CF91DF91B0
:100F00001F910F910895DF93CF9300D000D00F92DF
:100F1000CDB7DEB79D838C831982CE0103960E94E4
:100F20003A088A838A818823D9F08981282F30E082
:100F30008C819D81FC01E20FF31F8B81808389816D
:100F40008F5F89838981882F90E09C0121503040F8
:100F50008C819D81FC01E20FF31F80818432E9F6D0
:100F60008981882F90E09C01215030408C819D81A7
:100F7000FC01E20FF31F10820F900F900F900F9063
:100F80000F90CF91DF910895DF93CF93CDB7DEB768
:100F9000AAE2B0E0EAE2F0E0808180618C93AAE20C
:100FA000B0E0EAE2F0E0808188608C93A0E4B0E0F9
:100FB000E0E4F0E080818F7B8C93A0E4B0E0E0E49B
:100FC000F0E080818F7E8C93A0E4B0E0E0E4F0E07C
:100FD00080818F7D8C93A0E4B0E0E0E4F0E080813C
:100FE000877F8C93A0E4B0E0E0E4F0E08081826051
:100FF0008C93A0E4B0E0E0E4F0E0808184608C9326
:10100000AAE2B0E0EAE2F0E080818B7F8C93E0E43A
:10101000F0E01082E9E2F0E08FEC8083CF91DF9185
:101020000895DF93CF930F92CDB7DEB78983EBE2BC
:10103000F0E08081829586958770882F90E081709E
:1010400090700097A1F3ECE2F0E0898180830F902B
:10105000CF91DF910895DF93CF93CDB7DEB7EBE269
:10106000F0E080818823DCF7ECE2F0E08081CF9132
:10107000DF910895DF93CF9300D00F92CDB7DEB705
:101080009B838A831982EBE2F0E08081882344F419
:10109000ECE2F0E08081EA81FB81808381E089835A
:1010A00089810F900F900F90CF91DF910895DF937A
:1010B000CF93CDB7DEB7E3E5F0E080919E0180836A
:1010C000CF91DF910895DF93CF93CDB7DEB7E3E5FE
:1010D000F0E080919E01887F8083CF91DF91089519
:1010E000DF93CF930F92CDB7DEB780919E01887FBB
:1010F00080939E0180919E01836080939E0181E098
:1011000090E0909398018093970119820DC080918F
:10111000970190919801880F991F9093980180935F
:10112000970189818F5F89838981863080F38091DF
:101130009E01806480939E0180919E0188608093CF
:101140009E0180919E018F7C80939E0180919E01E3
:10115000806380939E010F90CF91DF910895EF926D
:10116000FF920F931F93DF93CF93CDB7DEB76897AE
:101170000FB6F894DEBF0FBECDBF6D8B7E8B8F8B0D
:10118000988F8091970190919801CC01A0E0B0E0F8
:1011900020E432E44FE050E0BC01CD010E94731D19
:1011A000DC01CB0120E034E244EF50E0BC01CD0192
:1011B0000E94A51DDA01C901898B9A8BAB8BBC8B70
:1011C00089899A89AB89BC89BA2FA92F982F88273A
:1011D0008D879E87AF87B88B8D899E89AF89B88DA3
:1011E00089879A87AB87BC8789859A85AB85BC85BB
:1011F0002D853E854F855889BC01CD010E94A51DD6
:10120000DA01C90180939A0190939B01A0939C01FC
:10121000B0939D0189859A85AB85BC852D853E85DA
:101220004F855889BC01CD010E94A51DDC01CB0171
:101230008D839E83AF83B8876D817E818F819885F2
:101240000E94A9047B018C016D857E858F8598891C
:101250000E94A9049B01AC01C801B7010E941903B7
:10126000DC01CB01BC01CD0120E030E040E853E4DB
:101270000E941F02DC01CB01BC01CD010E9449008C
:10128000DC01CB0189839A83AB83BC83E2E5F0E088
:1012900010828D819E81AF81B8850097A105B1052F
:1012A000E1F08981819580939F01E2E5F0E08091F2
:1012B0009F01808380919A0190919B01A0919C0154
:1012C000B0919D010196A11DB11D80939A0190934B
:1012D0009B01A0939C01B0939D010E9457086896C2
:1012E0000FB6F894DEBF0FBECDBFCF91DF911F9137
:1012F0000F91FF90EF900895DF93CF9300D0CDB77B
:10130000DEB79A83898389819A819093A50180931E
:10131000A4010F900F90CF91DF9108951F920F922B
:101320000FB60F9211242F933F934F935F936F93B8
:101330007F938F939F93AF93BF93EF93FF93DF932D
:10134000CF93CDB7DEB78091A0019091A101A0917C
:10135000A201B091A3010196A11DB11D8093A0012E
:101360009093A101A093A201B093A3012091A001A9
:101370003091A1014091A2015091A30180919A0165
:1013800090919B01A0919C01B0919D012817390774
:101390004A075B0791F4E091A401F091A50109953A
:1013A0001092A0011092A1011092A2011092A3012B
:1013B000E2E5F0E080919F018083CF91DF91FF9182
:1013C000EF91BF91AF919F918F917F916F915F91BD
:1013D0004F913F912F910F900FBE0F901F90189536
:1013E000DF93CF930F92CDB7DEB78983ECE5F0E0C2
:1013F0008981882F90E0982F882724E630E0B90172
:101400000E94921DCB01809580830E9457080F9007
:10141000CF91DF910895DF93CF930F92CDB7DEB7D1
:101420008983ECE5F0E08981482F50E0CA019C01F6
:10143000220F331FC9019695982F88279795879576
:10144000821B930B840F951F24E630E0B9010E94A4
:10145000921DCB01809580830E9457080F90CF91F9
:10146000DF910895DF93CF93CDB7DEB781E064E0DD
:1014700041E00E94080D81E065E041E00E94080D16
:1014800081E066E040E00E94080D81E067E041E015
:101490000E94080DADE2B0E0EDE2F0E080818065F1
:1014A0008C93CF91DF910895DF93CF93CDB7DEB7C3
:1014B00081E064E040E00E94080D81E065E040E0EA
:1014C0000E94080D81E066E041E00E94080D81E085
:1014D00067E040E00E94080DADE2B0E0EDE2F0E030
:1014E000808180648C93CF91DF910895DF93CF93B7
:1014F0000F92CDB7DEB78983EFE2F0E08981808378
:10150000EEE2F0E080818823DCF70F90CF91DF914D
:101510000895DF93CF93CDB7DEB7EEE2F0E08081A0
:101520008823DCF7EFE2F0E08081CF91DF9108952E
:10153000DF93CF9300D0CDB7DEB79A8389830AC0FB
:10154000E981FA8180810E94760A89819A810196D7
:101550009A838983E981FA818081882389F70F90B2
:101560000F90CF91DF9108950F931F93DF93CF9347
:1015700000D00F92CDB7DEB79B838A831982898111
:10158000282F30E08A819B818C01020F131F0E945B
:10159000890AF80180830FC089818F5F89838981DF
:1015A000282F30E08A819B818C01020F131F0E943B
:1015B000890AF80180838981282F30E08A819B8104
:1015C000FC01E20FF31F8081833231F78981282FDC
:1015D00030E08A819B81FC01E20FF31F10820F90A3
:1015E0000F900F90CF91DF911F910F910895DF938E
:1015F000CF9300D00F92CDB7DEB789838981282F92
:1016000030E03B832A838A819B818630910559F0A3
:101610002A813B812730310571F08A819B81853099
:10162000910589F017C0ABE5B0E0EBE5F0E0808113
:1016300080648C930FC0ABE5B0E0EBE5F0E0808117
:1016400080688C9307C0ABE5B0E0EBE5F0E080810B
:1016500080628C93AFE5B0E0EFE5F0E080818068D8
:101660008C930F900F900F90CF91DF910895DF939F
:10167000CF9300D000D000D0CDB7DEB789836A8386
:101680008A81863009F05CC08981282F30E03E8352
:101690002D838D819E818130910509F442C02D8179
:1016A0003E81223031052CF48D819E81009761F0BE
:1016B000A6C02D813E812230310521F18D819E8190
:1016C0008330910581F09BC0A5E5B0E0E5E5F0E051
:1016D00080818E7F8C93A5E5B0E0E5E5F0E0808128
:1016E0008D7F8C938CC0A5E5B0E0E5E5F0E08081CE
:1016F00081608C93A5E5B0E0E5E5F0E08081826053
:101700008C937DC0A5E5B0E0E5E5F0E080818E7FBB
:101710008C93A5E5B0E0E5E5F0E0808182608C93F4
:101720006EC0A5E5B0E0E5E5F0E0808181608C93D6
:10173000A5E5B0E0E5E5F0E080818D7F8C935FC0AA
:101740008A81873009F05BC08981282F30E03C8393
:101750002B838B819C818130910509F442C02B81C0
:101760003C81223031052CF48B819C81009761F003
:1017700046C02B813C812230310521F18B819C8137
:101780008330910581F03BC0A5E5B0E0E5E5F0E0F0
:1017900080818B7F8C93A5E5B0E0E5E5F0E080816A
:1017A000877F8C932CC0A5E5B0E0E5E5F0E0808173
:1017B00084608C93A5E5B0E0E5E5F0E08081886089
:1017C0008C931DC0A5E5B0E0E5E5F0E080818B7F5E
:1017D0008C93A5E5B0E0E5E5F0E0808188608C932E
:1017E0000EC0A5E5B0E0E5E5F0E0808184608C9373
:1017F000A5E5B0E0E5E5F0E08081877F8C93269653
:101800000FB6F894DEBF0FBECDBFCF91DF91089524
:10181000DF93CF93CDB7DEB727970FB6F894DEBF2F
:101820000FBECDBF89836A834B838B81882309F0E8
:1018300074C08981282F30E03F832E838E819F8161
:101840008130910559F12E813F81223031052CF4F0
:101850008E819F81009769F0D2C02E813F81223016
:10186000310589F18E819F818330910509F440C053
:10187000C6C0ABE3B0E0EBE3F0E08081482F8A81A3
:10188000282F30E081E090E0022E02C0880F991FDF
:101890000A94E2F7809584238C93B1C0A8E3B0E06A
:1018A000E8E3F0E08081482F8A81282F30E081E052
:1018B00090E0022E02C0880F991F0A94E2F78095EB
:1018C00084238C939CC0A5E3B0E0E5E3F0E0808145
:1018D000482F8A81282F30E081E090E0022E02C05C
:1018E000880F991F0A94E2F7809584238C9387C010
:1018F000A2E3B0E0E2E3F0E08081482F8A81282F64
:1019000030E081E090E0022E02C0880F991F0A9417
:10191000E2F7809584238C9372C08B81813009F02B
:101920006EC08981282F30E03D832C838C819D817E
:101930008130910549F12C813D81223031052CF413
:101940008C819D81009761F05AC02C813D812230AD
:10195000310571F18C819D8183309105E9F14FC092
:10196000ABE3B0E0EBE3F0E08081482F8A81282FE1
:1019700030E081E090E0022E02C0880F991F0A94A7
:10198000E2F7842B8C933BC0A8E3B0E0E8E3F0E0FF
:101990008081482F8A81282F30E081E090E0022E5C
:1019A00002C0880F991F0A94E2F7842B8C9327C0FA
:1019B000A5E3B0E0E5E3F0E08081482F8A81282F9D
:1019C00030E081E090E0022E02C0880F991F0A9457
:1019D000E2F7842B8C9313C0A2E3B0E0E2E3F0E0E3
:1019E0008081482F8A81282F30E081E090E0022E0C
:1019F00002C0880F991F0A94E2F7842B8C932796D4
:101A00000FB6F894DEBF0FBECDBFCF91DF91089522
:101A1000DF93CF93CDB7DEB727970FB6F894DEBF2D
:101A20000FBECDBF89836A834B838B81882309F0E6
:101A300074C08981282F30E03F832E838E819F815F
:101A40008130910559F12E813F81223031052CF4EE
:101A50008E819F81009769F0D2C02E813F81223014
:101A6000310589F18E819F818330910509F440C051
:101A7000C6C0AAE3B0E0EAE3F0E08081482F8A81A3
:101A8000282F30E081E090E0022E02C0880F991FDD
:101A90000A94E2F7809584238C93B1C0A7E3B0E069
:101AA000E7E3F0E08081482F8A81282F30E081E051
:101AB00090E0022E02C0880F991F0A94E2F78095E9
:101AC00084238C939CC0A4E3B0E0E4E3F0E0808145
:101AD000482F8A81282F30E081E090E0022E02C05A
:101AE000880F991F0A94E2F7809584238C9387C00E
:101AF000A1E3B0E0E1E3F0E08081482F8A81282F64
:101B000030E081E090E0022E02C0880F991F0A9415
:101B1000E2F7809584238C9372C08B81813009F029
:101B20006EC08981282F30E03D832C838C819D817C
:101B30008130910549F12C813D81223031052CF411
:101B40008C819D81009761F05AC02C813D812230AB
:101B5000310571F18C819D8183309105E9F14FC090
:101B6000AAE3B0E0EAE3F0E08081482F8A81282FE1
:101B700030E081E090E0022E02C0880F991F0A94A5
:101B8000E2F7842B8C933BC0A7E3B0E0E7E3F0E0FF
:101B90008081482F8A81282F30E081E090E0022E5A
:101BA00002C0880F991F0A94E2F7842B8C9327C0F8
:101BB000A4E3B0E0E4E3F0E08081482F8A81282F9D
:101BC00030E081E090E0022E02C0880F991F0A9455
:101BD000E2F7842B8C9313C0A1E3B0E0E1E3F0E0E3
:101BE0008081482F8A81282F30E081E090E0022E0A
:101BF00002C0880F991F0A94E2F7842B8C932796D2
:101C00000FB6F894DEBF0FBECDBFCF91DF91089520
:101C1000DF93CF9300D000D00F92CDB7DEB78A8389
:101C20006B838A81282F30E03D832C834C815D813A
:101C30004130510541F18C819D818230910534F410
:101C40002C813D812115310561F052C04C815D81AF
:101C50004230510551F18C819D8183309105B9F15C
:101C600047C0E9E3F0E08081282F30E08B81882FA6
:101C700090E0A90102C0559547958A95E2F7CA01FF
:101C80008170898335C0E6E3F0E08081282F30E061
:101C90008B81882F90E0A90102C0559547958A95C0
:101CA000E2F7CA018170898323C0E3E3F0E0808119
:101CB000282F30E08B81882F90E0A90102C0559534
:101CC00047958A95E2F7CA018170898311C0E0E3E4
:101CD000F0E08081282F30E08B81882F90E0A901EF
:101CE00002C0559547958A95E2F7CA0181708983AC
:101CF00089810F900F900F900F900F90CF91DF91EF
:101D00000895DF93CF9300D000D0CDB7DEB789839D
:101D10006A838981282F30E03C832B838B819C81CF
:101D200081309105D1F02B813C81223031052CF49A
:101D30008B819C81009761F01EC02B813C812230F9
:101D4000310581F08B819C818330910581F013C036
:101D5000EAE3F0E08A8180830EC0E7E3F0E08A8165
:101D6000808309C0E4E3F0E08A81808304C0E1E37A
:101D7000F0E08A8180830F900F900F900F90CF91A9
:101D8000DF910895DF93CF9300D000D0CDB7DEB7B9
:101D900089836A838981282F30E03C832B838B8160
:101DA0009C8181309105D1F02B813C81223031051D
:101DB0002CF48B819C81009761F01EC02B813C81AB
:101DC0002230310581F08B819C818330910581F037
:101DD00013C0EBE3F0E08A8180830EC0E8E3F0E01B
:101DE0008A81808309C0E5E3F0E08A81808304C0B2
:101DF000E2E3F0E08A8180830F900F900F900F90C4
:101E0000CF91DF910895DF93CF9300D0CDB7DEB7A8
:101E100089836A8389816A8141E00E94080D0F905D
:101E20000F90CF91DF910895DF93CF9300D00F9261
:101E3000CDB7DEB789836A834B838B81882331F4E6
:101E400089816A8141E00E94080C05C089816A810C
:101E500040E00E94080C0F900F900F90CF91DF91FF
:101E60000895DF93CF9300D00F92CDB7DEB789836B
:101E70006A834B838B81882331F489816A8140E0B6
:101E80000E94080C05C089816A8141E00E94080C0B
:101E90000F900F900F90CF91DF910895DF93CF9324
:101EA00000D0CDB7DEB789836A830F900F90CF91B2
:101EB000DF910895DF93CF930F92CDB7DEB789837B
:101EC00089810E940B0A0F90CF91DF9108950F93A3
:101ED0001F93DF93CF93CDB7DEB7CD58D0400FB669
:101EE000F894DEBF0FBECDBFFE01E357FF4F8083E6
:101EF00080E061E041E00E94080D80E062E041E0A6
:101F00000E94080DFE01E357FF4F8081813009F0E8
:101F1000DBC280E06FEF0E94810EFE01E757FF4FAA
:101F200080E090E0A0EFB1E480839183A283B3834B
:101F30008E010B571F4FFE01E757FF4F60817181E4
:101F40008281938120E030E04AEF54E40E941F0236
:101F5000DC01CB01F80180839183A283B383FE016E
:101F6000EB57FF4F608171818281938120E030E0E7
:101F700040E85FE30E942504882344F4FE01ED5706
:101F8000FF4F81E090E09183808364C0FE01EB57B6
:101F9000FF4F608171818281938120E03FEF4FE7A5
:101FA00057E40E94C50318160CF043C0FE01E75722
:101FB000FF4F608171818281938120E030E040E2B7
:101FC00051E40E941F02DC01CB018E010D571F4F0F
:101FD000BC01CD010E944900DC01CB01F8019183D5
:101FE00080831FC0FE01EF57FF4F88EC90E0918384
:101FF0008083FE01EF57FF4F808191810197F1F7B8
:10200000FE01EF57FF4F91838083DE01AD57BF4F35
:10201000FE01ED57FF4F80819181019711969C93AE
:102020008E93FE01ED57FF4F808191810097D1F68D
:1020300027C08E010D571F4FFE01EB57FF4F6081E8
:102040007181828193810E944900DC01CB01F801FA
:1020500091838083DE01A158BF4FFE01ED57FF4FF2
:10206000808191818D939C93FE01E158FF4F808187
:1020700091810197F1F7FE01E158FF4F9183808331
:1020800088E30E949A15FE01E558FF4F80E090E03A
:10209000A0E8BFE380839183A283B3838E010958B4
:1020A0001F4FFE01E558FF4F60817181828193814E
:1020B00020E030E04AEF54E40E941F02DC01CB0133
:1020C000F80180839183A283B383FE01E958FF4F17
:1020D000608171818281938120E030E040E85FE39C
:1020E0000E942504882344F4FE01EB58FF4F81E051
:1020F00090E09183808364C0FE01E958FF4F6081C6
:1021000071818281938120E03FEF4FE757E40E9485
:10211000C50318160CF043C0FE01E558FF4F60815F
:1021200071818281938120E030E040E251E40E949D
:102130001F02DC01CB018E010B581F4FBC01CD01EA
:102140000E944900DC01CB01F801918380831FC00C
:10215000FE01ED58FF4F88EC90E091838083FE01F3
:10216000ED58FF4F808191810197F1F7FE01ED5805
:10217000FF4F91838083DE01AB58BF4FFE01EB58C8
:10218000FF4F80819181019711969C938E93FE0160
:10219000EB58FF4F808191810097D1F627C08E01C7
:1021A0000B581F4FFE01E958FF4F608171818281FA
:1021B00093810E944900DC01CB01F8019183808367
:1021C000DE01AF58BF4FFE01EB58FF4F8081918178
:1021D0008D939C93FE01EF58FF4F80819181019771
:1021E000F1F7FE01EF58FF4F918380838EE00E944C
:1021F0009A15FE01E359FF4F80E090E0A0E8BFE3AD
:1022000080839183A283B3838E0107591F4FFE0100
:10221000E359FF4F608171818281938120E030E03A
:102220004AEF54E40E941F02DC01CB01F8018083D5
:102230009183A283B383FE01E759FF4F60817181CF
:102240008281938120E030E040E85FE30E94250432
:10225000882344F4FE01E959FF4F81E090E0918327
:10226000808364C0FE01E759FF4F608171818281E4
:10227000938120E03FEF4FE757E40E94C503181613
:102280000CF043C0FE01E359FF4F608171818281F0
:10229000938120E030E040E251E40E941F02DC0123
:1022A000CB018E0109591F4FBC01CD010E9449008D
:1022B000DC01CB01F801918380831FC0FE01EB5943
:1022C000FF4F88EC90E091838083FE01EB59FF4F34
:1022D000808191810197F1F7FE01EB59FF4F9183C6
:1022E0008083DE01A959BF4FFE01E959FF4F80816C
:1022F0009181019711969C938E93FE01E959FF4FAE
:10230000808191810097D1F627C08E0109591F4F16
:10231000FE01E759FF4F60817181828193810E94A4
:102320004900DC01CB01F80191838083DE01AD59C6
:10233000BF4FFE01E959FF4F808191818D939C939E
:10234000FE01ED59FF4F808191810197F1F7FE0168
:10235000ED59FF4F9183808381E00E949A15FE0121
:10236000E15AFF4F80E090E0A0E4B0E480839183E5
:10237000A283B3838E01055A1F4FFE01E15AFF4F1E
:10238000608171818281938120E030E04AEF54E4E2
:102390000E941F02DC01CB01F80180839183A2839C
:1023A000B383FE01E55AFF4F608171818281938181
:1023B00020E030E040E85FE30E942504882344F4F5
:1023C000FE01E75AFF4F81E090E09183808364C073
:1023D000FE01E55AFF4F608171818281938120E087
:1023E0003FEF4FE757E40E94C50318160CF043C0B7
:1023F000FE01E15AFF4F608171818281938120E06B
:1024000030E040E251E40E941F02DC01CB018E016A
:10241000075A1F4FBC01CD010E944900DC01CB01CE
:10242000F801918380831FC0FE01E95AFF4F88ECB9
:1024300090E091838083FE01E95AFF4F8081918172
:102440000197F1F7FE01E95AFF4F91838083DE0186
:10245000A75ABF4FFE01E75AFF4F80819181019734
:1024600011969C938E93FE01E75AFF4F80819181D4
:102470000097D1F653C38E01075A1F4FFE01E55A4C
:10248000FF4F60817181828193810E944900DC014C
:10249000CB01F80191838083DE01AB5ABF4FFE016F
:1024A000E75AFF4F8081918111969C938E93FE0194
:1024B000EB5AFF4F808191810197F1F7FE01EB5AB2
:1024C000FF4F918380832AC3FE01E357FF4F808132
:1024D000882309F023C380E063E041E00E94080DF7
:1024E00080E064E041E00E94080D80E065E041E0AA
:1024F0000E94080D80E066E041E00E94080DFE01A8
:10250000EF5AFF4F80E090E0ACE0B2E4808391832B
:10251000A283B3838E01035B1F4FFE01EF5AFF4F6F
:10252000608171818281938120E030E04AEF54E440
:102530000E941F02DC01CB01F80180839183A283FA
:10254000B383FE01E35BFF4F6081718182819381E0
:1025500020E030E040E85FE30E942504882344F453
:10256000FE01E55BFF4F81E090E09183808364C0D2
:10257000FE01E35BFF4F608171818281938120E0E6
:102580003FEF4FE757E40E94C50318160CF043C015
:10259000FE01EF5AFF4F608171818281938120E0BB
:1025A00030E040E251E40E941F02DC01CB018E01C9
:1025B000055B1F4FBC01CD010E944900DC01CB012E
:1025C000F801918380831FC0FE01E75BFF4F88EC19
:1025D00090E091838083FE01E75BFF4F80819181D2
:1025E0000197F1F7FE01E75BFF4F91838083DE01E6
:1025F000A55BBF4FFE01E55BFF4F80819181019795
:1026000011969C938E93FE01E55BFF4F8081918133
:102610000097D1F627C08E01055B1F4FFE01E35BDB
:10262000FF4F60817181828193810E944900DC01AA
:10263000CB01F80191838083DE01A95BBF4FFE01CE
:10264000E55BFF4F808191818D939C93FE01E95B57
:10265000FF4F808191810197F1F7FE01E95BFF4F08
:102660009183808382E00E949A15FE01ED5BFF4F0B
:1026700080E090E0A0E8BFE380839183A283B383EE
:102680008E01015C1F4FFE01ED5BFF4F6081718188
:102690008281938120E030E04AEF54E40E941F02DF
:1026A000DC01CB01F80180839183A283B383FE0117
:1026B000FF96608171818281938120E030E040E863
:1026C0005FE30E94250488232CF481E090E09EAF14
:1026D0008DAF46C0FE01FF9660817181828193813A
:1026E00020E03FEF4FE757E40E94C503181664F55A
:1026F000FE01ED5BFF4F608171818281938120E05B
:1027000030E040E251E40E941F02DC01CB01BC0139
:10271000CD010E944900DC01CB019EAF8DAF0FC0FF
:1027200088EC90E09CAF8BAF8BAD9CAD0197F1F73F
:102730009CAF8BAF8DAD9EAD01979EAF8DAF8DAD34
:102740009EAD009769F716C0FE01FF96608171810A
:10275000828193810E944900DC01CB019EAF8DAF45
:102760008DAD9EAD9AAF89AF89AD9AAD0197F1F766
:102770009AAF89AF88E20E949A1580E090E0A0E8C5
:10278000BFE38DAB9EABAFABB8AF6DA97EA98FA9F0
:1027900098AD20E030E04AEF54E40E941F02DC01D3
:1027A000CB0189AB9AABABABBCAB69A97AA98BA9BE
:1027B0009CA920E030E040E85FE30E9425048823E4
:1027C0002CF481E090E098AB8FA73FC069A97AA96B
:1027D0008BA99CA920E03FEF4FE757E40E94C50377
:1027E00018164CF56DA97EA98FA998AD20E030E0B0
:1027F00040E251E40E941F02DC01CB01BC01CD018B
:102800000E944900DC01CB0198AB8FA70FC088EC78
:1028100090E09EA78DA78DA59EA50197F1F79EA795
:102820008DA78FA598A9019798AB8FA78FA598A979
:10283000009769F714C069A97AA98BA99CA90E947D
:102840004900DC01CB0198AB8FA78FA598A99CA765
:102850008BA78BA59CA50197F1F79CA78BA78EE072
:102860000E949A1580E090E0A0E8BFE38FA398A7AC
:10287000A9A7BAA76FA178A589A59AA520E030E0FD
:102880004AEF54E40E941F02DC01CB018BA39CA3FE
:10289000ADA3BEA36BA17CA18DA19EA120E030E0E1
:1028A00040E85FE30E94250488232CF481E090E057
:1028B0009AA389A33FC06BA17CA18DA19EA120E01A
:1028C0003FEF4FE757E40E94C50318164CF56FA180
:1028D00078A589A59AA520E030E040E251E40E9465
:1028E0001F02DC01CB01BC01CD010E944900DC01CB
:1028F000CB019AA389A30FC088EC90E098A38F8F97
:102900008F8D98A10197F1F798A38F8F89A19AA134
:1029100001979AA389A389A19AA1009769F714C086
:102920006BA17CA18DA19EA10E944900DC01CB017D
:102930009AA389A389A19AA19E8F8D8F8D8D9E8D3B
:102940000197F1F79E8F8D8F81E00E949A1580E0AC
:1029500090E0A0E8BFE3898F9A8FAB8FBC8F698D21
:102960007A8D8B8D9C8D20E030E04AEF54E40E94FC
:102970001F02DC01CB018D8B9E8BAF8BB88F6D89D5
:102980007E898F89988D20E030E040E85FE30E94E7
:10299000250488232CF481E090E09C8B8B8B3FC036
:1029A0006D897E898F89988D20E03FEF4FE757E44E
:1029B0000E94C50318164CF5698D7A8D8B8D9C8D00
:1029C00020E030E040E251E40E941F02DC01CB0134
:1029D000BC01CD010E944900DC01CB019C8B8B8B9B
:1029E0000FC088EC90E09A8B898B89899A8901972E
:1029F000F1F79A8B898B8B899C8901979C8B8B8BA8
:102A00008B899C89009769F714C06D897E898F89AD
:102A1000988D0E944900DC01CB019C8B8B8B8B89AC
:102A20009C89988B8F878F8598890197F1F7988B70
:102A30008F8786E00E949A1580E090E0A0E4B0E4E1
:102A40008B879C87AD87BE876B857C858D859E85B2
:102A500020E030E04AEF54E40E941F02DC01CB0189
:102A60008F839887A987BA876F81788589859A85AA
:102A700020E030E040E85FE30E94250488232CF446
:102A800081E090E09E838D833FC06F81788589854A
:102A90009A8520E03FEF4FE757E40E94C5031816E0
:102AA0004CF56B857C858D859E8520E030E040E28D
:102AB00051E40E941F02DC01CB01BC01CD010E9448
:102AC0004900DC01CB019E838D830FC088EC90E030
:102AD0009C838B838B819C810197F1F79C838B83F3
:102AE0008D819E8101979E838D838D819E8100972C
:102AF00069F714C06F81788589859A850E9449009D
:102B0000DC01CB019E838D838D819E819A83898395
:102B100089819A810197F1F79A838983C357DF4F9F
:102B20000FB6F894DEBF0FBECDBFCF91DF911F91DE
:102B30000F910895DF93CF93CDB7DEB7EA970FB625
:102B4000F894DEBF0FBECDBF8AAF80E090E0A0EA70
:102B5000B0E48DAB9EABAFABB8AF6DA97EA98FA92A
:102B600098AD20E030E04AEF54E40E941F02DC01FF
:102B7000CB0189AB9AABABABBCAB69A97AA98BA9EA
:102B80009CA920E030E040E85FE30E942504882310
:102B90002CF481E090E098AB8FA73FC069A97AA997
:102BA0008BA99CA920E03FEF4FE757E40E94C503A3
:102BB00018164CF56DA97EA98FA998AD20E030E0DC
:102BC00040E251E40E941F02DC01CB01BC01CD01B7
:102BD0000E944900DC01CB0198AB8FA70FC088ECA5
:102BE00090E09EA78DA78DA59EA50197F1F79EA7C2
:102BF0008DA78FA598A9019798AB8FA78FA598A9A6
:102C0000009769F714C069A97AA98BA99CA90E94A9
:102C10004900DC01CB0198AB8FA78FA598A99CA791
:102C20008BA78BA59CA50197F1F79CA78BA780E0AC
:102C300061E040E00E94080CEBE3F0E08081282F87
:102C400027788AAD882F90E0807F90709595879542
:102C5000822B89AF80E069AD0E94C20E80E062E005
:102C600041E00E94080C80E090E0A0E8BFE38FA361
:102C700098A7A9A7BAA76FA178A589A59AA520E0CA
:102C800030E04AEF54E40E941F02DC01CB018BA329
:102C90009CA3ADA3BEA36BA17CA18DA19EA120E0AE
:102CA00030E040E85FE30E94250488232CF481E0B3
:102CB00090E09AA389A33FC06BA17CA18DA19EA1A6
:102CC00020E03FEF4FE757E40E94C50318164CF58C
:102CD0006FA178A589A59AA520E030E040E251E4F3
:102CE0000E941F02DC01CB01BC01CD010E94490002
:102CF000DC01CB019AA389A30FC088EC90E098A3D4
:102D00008F8F8F8D98A10197F1F798A38F8F89A14D
:102D10009AA101979AA389A389A19AA1009769F71B
:102D200014C06BA17CA18DA19EA10E944900DC0171
:102D3000CB019AA389A389A19AA19E8F8D8F8D8D96
:102D40009E8D0197F1F79E8F8D8F80E062E040E0CD
:102D50000E94080C80E090E0A0E8BFE3898F9A8F82
:102D6000AB8FBC8F698D7A8D8B8D9C8D20E030E090
:102D70004AEF54E40E941F02DC01CB018D8B9E8B35
:102D8000AF8BB88F6D897E898F89988D20E030E078
:102D900040E85FE30E94250488232CF481E090E062
:102DA0009C8B8B8B3FC06D897E898F89988D20E0AD
:102DB0003FEF4FE757E40E94C50318164CF5698DA5
:102DC0007A8D8B8D9C8D20E030E040E251E40E94B2
:102DD0001F02DC01CB01BC01CD010E944900DC01D6
:102DE000CB019C8B8B8B0FC088EC90E09A8B898BEE
:102DF00089899A890197F1F79A8B898B8B899C89AC
:102E000001979C8B8B8B8B899C89009769F714C0E9
:102E10006D897E898F89988D0E944900DC01CB01E4
:102E20009C8B8B8B8B899C89988B8F878F859889BE
:102E30000197F1F7988B8F87EBE3F0E08081282FE3
:102E400027788AAD882F90E0880F991F880F991FE7
:102E5000880F991F822B89AF80E069AD0E94C20E56
:102E600080E062E041E00E94080C80E090E0A0E891
:102E7000BFE38B879C87AD87BE876B857C858D85FF
:102E80009E8520E030E04AEF54E40E941F02DC01FE
:102E9000CB018F839887A987BA876F8178858985C9
:102EA0009A8520E030E040E85FE30E942504882313
:102EB0002CF481E090E09E838D833FC06F81788504
:102EC00089859A8520E03FEF4FE757E40E94C503CC
:102ED00018164CF56B857C858D859E8520E030E04D
:102EE00040E251E40E941F02DC01CB01BC01CD0194
:102EF0000E944900DC01CB019E838D830FC088ECCA
:102F000090E09C838B838B819C810197F1F79C835C
:102F10008B838D819E8101979E838D838D819E8180
:102F2000009769F714C06F81788589859A850E941A
:102F30004900DC01CB019E838D838D819E819A8324
:102F4000898389819A810197F1F79A83898380E047
:102F500062E040E00E94080CEA960FB6F894DEBFEB
:102F60000FBECDBFCF91DF910895DF93CF93CDB743
:102F7000DEB7AC970FB6F894DEBF0FBECDBF8CA7FF
:102F800080E090E0A0EAB0E48FA398A7A9A7BAA731
:102F90006FA178A589A59AA520E030E04AEF54E416
:102FA0000E941F02DC01CB018BA39CA3ADA3BEA397
:102FB0006BA17CA18DA19EA120E030E040E85FE301
:102FC0000E94250488232CF481E090E09AA389A331
:102FD0003FC06BA17CA18DA19EA120E03FEF4FE7F8
:102FE00057E40E94C50318164CF56FA178A589A572
:102FF0009AA520E030E040E251E40E941F02DC018B
:10300000CB01BC01CD010E944900DC01CB019AA398
:1030100089A30FC088EC90E098A38F8F8F8D98A123
:103020000197F1F798A38F8F89A19AA101979AA38D
:1030300089A389A19AA1009769F714C06BA17CA10B
:103040008DA19EA10E944900DC01CB019AA389A316
:1030500089A19AA19E8F8D8F8D8D9E8D0197F1F7FD
:103060009E8F8D8F80E061E041E00E94080CEBE3D1
:10307000F0E08081282F27788CA5882F90E0807F32
:10308000907095958795822B8BA780E06BA50E9409
:10309000C20E80E062E041E00E94080C80E090E017
:1030A000A0E8BFE3898F9A8FAB8FBC8F698D7A8D33
:1030B0008B8D9C8D20E030E04AEF54E40E941F028B
:1030C000DC01CB018D8B9E8BAF8BB88F6D897E8998
:1030D0008F89988D20E030E040E85FE30E9425046E
:1030E00088232CF481E090E09C8B8B8B3FC06D8912
:1030F0007E898F89988D20E03FEF4FE757E40E944B
:10310000C50318164CF5698D7A8D8B8D9C8D20E04A
:1031100030E040E251E40E941F02DC01CB01BC011F
:10312000CD010E944900DC01CB019C8B8B8B0FC031
:1031300088EC90E09A8B898B89899A890197F1F7BD
:103140009A8B898B8B899C8901979C8B8B8B8B8924
:103150009C89009769F714C06D897E898F89988D45
:103160000E944900DC01CB019C8B8B8B8B899C8955
:10317000988B8F878F8598890197F1F7988B8F8728
:1031800080E062E040E00E94080CEBE3F0E0808128
:10319000282F27788CA5882F90E0880F991F880FFB
:1031A000991F880F991F822B8BA780E06BA50E9427
:1031B000C20E80E062E041E00E94080C80E090E0F6
:1031C000A0E8BFE38B879C87AD87BE876B857C8536
:1031D0008D859E8520E030E04AEF54E40E941F0276
:1031E000DC01CB018F839887A987BA876F817885A7
:1031F00089859A8520E030E040E85FE30E9425045D
:1032000088232CF481E090E09E838D833FC06F8102
:10321000788589859A8520E03FEF4FE757E40E9443
:10322000C50318164CF56B857C858D859E8520E041
:1032300030E040E251E40E941F02DC01CB01BC01FE
:10324000CD010E944900DC01CB019E838D830FC01C
:1032500088EC90E09C838B838B819C810197F1F7B4
:103260009C838B838D819E8101979E838D838D812D
:103270009E81009769F714C06F81788589859A854A
:103280000E944900DC01CB019E838D838D819E814C
:103290009A83898389819A810197F1F79A83898337
:1032A00080E062E040E00E94080CAC960FB6F89413
:1032B000DEBF0FBECDBFCF91DF910895DF93CF93D7
:1032C00000D00F92CDB7DEB79B838A8319820EC0E0
:1032D0008981282F30E08A819B81FC01E20FF31F56
:1032E00080810E94B51789818F5F89838981282F0A
:1032F00030E08A819B81FC01E20FF31F80818823EB
:1033000039F70F900F900F90CF91DF9108950F93A1
:103310001F93DF93CF93CDB7DEB765970FB6F894C1
:10332000DEBF0FBECDBF6A8B7B8B8C8B9D8B1982D2
:103330008A899B89AC89BD890097A105B10589F56A
:1033400080E30E94B5172DC08981082F10E08A897B
:103350009B89AC89BD892AE030E040E050E0BC01A7
:10336000CD010E94A51DDC01CB01282FCE010296C4
:10337000FC01E00FF11F208389818F5F89838A8997
:103380009B89AC89BD892AE030E040E050E0BC0177
:10339000CD010E94A51DDA01C9018A8B9B8BAC8BE4
:1033A000BD8B8A899B89AC89BD890097A105B10530
:1033B00099F08981803140F20FC0898181508983E1
:1033C0008981282F30E0CE010296FC01E20FF31F25
:1033D0008081805D0E94B5178981882371F7659689
:1033E0000FB6F894DEBF0FBECDBFCF91DF911F9116
:1033F0000F9108950F931F93DF93CF93CDB7DEB74F
:1034000065970FB6F894DEBF0FBECDBF6A8B7B8B7E
:103410008C8B9D8B19828A899B89AC89BD89009789
:10342000A105B105B1F480E30E94B51712C08DE289
:103430000E94B5178A899B89AC89BD89B095A095F2
:10344000909581959F4FAF4FBF4F8A8B9B8BAC8BD5
:10345000BD8B8A899B89AC89BD89BB2344F32DC070
:103460008981082F10E08A899B89AC89BD892AE06F
:1034700030E040E050E0BC01CD010E94C71DDC01FE
:10348000CB01282FCE010296FC01E00FF11F208313
:1034900089818F5F89838A899B89AC89BD892AE06C
:1034A00030E040E050E0BC01CD010E94C71DDA01D0
:1034B000C9018A8B9B8BAC8BBD8B8A899B89AC891C
:1034C000BD890097A105B10599F08981803140F24D
:1034D0000FC08981815089838981282F30E0CE01F6
:1034E0000296FC01E20FF31F8081805D0E94B517F8
:1034F0008981882371F765960FB6F894DEBF0FBEF9
:10350000CDBFCF91DF911F910F910895DF93CF939E
:1035100000D000D0CDB7DEB789836A838981282F98
:1035200030E03C832B838B819C81009731F02B8191
:103530003C812130310549F00FC08A81803160F42F
:103540008A8180580E949A1507C08A81803120F4B0
:103550008A8180540E949A150F900F900F900F90BF
:10356000CF91DF910895DF93CF93CDB7DEB7CF91A1
:10357000DF910895DF93CF9300D000D0CDB7DEB7B1
:1035800089838981282F30E03C832B838B819C8128
:103590008830910509F470C02B813C8129303105B8
:1035A0005CF58B819C818430910509F459C02B8195
:1035B0003C81253031059CF48B819C8182309105C2
:1035C00009F448C02B813C81233031050CF045C003
:1035D0008B819C818130910509F439C067C02B81B2
:1035E0003C812630310509F441C08B819C818730B4
:1035F00091050CF03EC037C02B813C812C30310549
:1036000009F446C08B819C818D3091055CF42B813F
:103610003C812A303105B1F18B819C818B30910541
:10362000A4F52DC02B813C812E303105B9F18B8161
:103630009C818E3091057CF12B813C812F303105AE
:1036400079F18B819C818031910569F12FC097E0E0
:103650009A832EC028E02A832BC039E03A8328C001
:1036600085E28A8325C094E09A8322C025E02A83DC
:103670001FC036E03A831CC08AE28A8319C091E0F9
:103680009A8316C022E02A8313C033E03A8310C025
:103690008DE28A830DC090E29A830AC01A8208C024
:1036A0002DE32A8305C03BE23A8302C089818A83E5
:1036B0008A810F900F900F900F90CF91DF91089516
:1036C000DF93CF9300D0CDB7DEB71A8242C08A8194
:1036D000282F30E080E190E002C0880F991F2A95E2
:1036E000E2F7982F82E0692F0E94810E8A81282FAD
:1036F00030E080E190E002C0880F991F2A95E2F740
:10370000982F909582E0692F0E94C20E19821BC0EB
:1037100082E069810E94080E882391F48981882FB4
:1037200090E0880F991F880F991F982F8A81890F21
:103730008F5F0E94BA1A0F900F90CF91DF9108957A
:1037400089818F5F89838981843010F38A818F5FBB
:103750008A838A81843008F4BACFB7CFEF92FF9280
:103760000F931F93DF93CF93CDB7DEB7EE970FB6CE
:10377000F894DEBF0FBECDBF83E060E040E00E9462
:10378000080D83E061E041E00E94080D80E00E94A6
:10379000670F0E94C4070E9470080E94540ACE015D
:1037A00083969BAF8AAFA8E8B0E0BDAFACAFB7E0FF
:1037B000BEAFECADFDAD00808CAD9DAD01969DAF73
:1037C0008CAFAAADBBAD0C92EAADFBAD3196FBAFB1
:1037D000EAAFFEADF150FEAF8EAD882351F71F8AE0
:1037E000188E198E1A8E86E090E0A0E0B0E08B8BE8
:1037F0009C8BAD8BBE8B80E061E00E94861A80E6D8
:1038000090E00E945E1981E061E00E94861A1F8E9E
:1038100018A219A21AA225C0EF8CF8A009A11AA11A
:103820000E942B08282FCE018A96FC01EE0DFF1D69
:1038300020838F8D98A1A9A1BAA19E01265D3F4F3B
:10384000F901E80FF91F80810E94B5178F8D98A1AB
:10385000A9A1BAA10196A11DB11D8F8F98A3A9A3FB
:10386000BAA38F8D98A1A9A1BAA187309105A1050E
:10387000B10590F21B8E1C8E1D8E1E8E2EC08B8D60
:103880009C8DAD8DBE8D9E01265D3F4FF901E80FE9
:10389000F91F40818B8D9C8DAD8DBE8D9E012D5D60
:1038A0003F4FF901E80FF91F8081481759F48F89BC
:1038B000988DA98DBA8D0196A11DB11D8F8B988F02
:1038C000A98FBA8F8B8D9C8DAD8DBE8D0196A11D5C
:1038D000B11D8B8F9C8FAD8FBE8F2B8D3C8D4D8DF1
:1038E0005E8D8B899C89AD89BE89281739074A0767
:1038F0005B0728F22F89388D498D5A8D8B899C89D9
:10390000AD89BE89281739074A075B0709F054C0FB
:1039100081E00E949A158AE0FE01F096DF01982F5F
:103920001D929A95E9F781E060E00E94861A8FE681
:1039300090E00E945E191F8E18A219A21AA21AC046
:103940008F8D98A1A9A1BAA19E01205D3F4FF901D9
:10395000E80FF91F8081882F90E00E94890A8F8DDF
:1039600098A1A9A1BAA10196A11DB11D8F8F98A3FD
:10397000A9A3BAA38F8D98A1A9A1BAA18A30910554
:10398000A105B105E8F2CE01C0960E945E1986E756
:1039900090E00E945E191F86188A198A1A8ACE0141
:1039A000C0960E942D1EAA2797FDA095BA2F8F873B
:1039B000988BA98BBA8BAFCF81E00E949A1580E0DB
:1039C00061E00E94861A89E790E00E945E1980E01B
:1039D00090E0AAEFB4E48B879C87AD87BE876B85A8
:1039E0007C858D859E8520E030E04AEF54E40E947E
:1039F0001F02DC01CB018F839887A987BA876F816B
:103A0000788589859A8520E030E040E85FE30E9470
:103A1000250488232CF481E090E09E838D833FC0B1
:103A20006F81788589859A8520E03FEF4FE757E4DD
:103A30000E94C50318164CF56B857C858D859E8587
:103A400020E030E040E251E40E941F02DC01CB01A3
:103A5000BC01CD010E944900DC01CB019E838D8316
:103A60000FC088EC90E09C838B838B819C810197B5
:103A7000F1F79C838B838D819E8101979E838D833B
:103A80008D819E81009769F714C06F817885898543
:103A90009A850E944900DC01CB019E838D838D8134
:103AA0009E819A83898389819A810197F1F79A830C
:103AB000898381E00E949A1580E061E00E94861A65
:103AC00080E690E00E945E1980E090E0EE960FB6EE
:103AD000F894DEBF0FBECDBFCF91DF911F910F9144
:103AE000FF90EF900895629FD001739FF001829F35
:103AF000E00DF11D649FE00DF11D929FF00D839F7D
:103B0000F00D749FF00D659FF00D9927729FB00D19
:103B1000E11DF91F639FB00DE11DF91FBD01CF012C
:103B20001124089597FB092E07260AD077FD04D0AB
:103B300049D006D000201AF4709561957F4F089502
:103B4000F6F7909581959F4F0895A1E21A2EAA1B32
:103B5000BB1BFD010DC0AA1FBB1FEE1FFF1FA2173D
:103B6000B307E407F50720F0A21BB30BE40BF50B3A
:103B7000661F771F881F991F1A9469F760957095C3
:103B8000809590959B01AC01BD01CF01089597FBF5
:103B9000092E05260ED057FD04D0D7DF0AD0001C11
:103BA00038F450954095309521953F4F4F4F5F4FDA
:103BB0000895F6F790958095709561957F4F8F4F9A
:103BC0009F4F0895AA1BBB1B51E107C0AA1FBB1F33
:103BD000A617B70710F0A61BB70B881F991F5A9599
:103BE000A9F780959095BC01CD0108952F923F9241
:103BF0004F925F926F927F928F929F92AF92BF92FD
:103C0000CF92DF92EF92FF920F931F93CF93DF93A8
:103C1000CDB7DEB7CA1BDB0B0FB6F894DEBF0FBE05
:103C2000CDBF09942A88398848885F846E847D8452
:103C30008C849B84AA84B984C884DF80EE80FD8054
:103C40000C811B81AA81B981CE0FD11D0FB6F894CA
:103C5000DEBF0FBECDBFED010895FC018827992777
:103C6000E89421912032E9F3293010F02E30C8F386
:103C70002B3241F02D3239F4689404C00E944B1E5F
:103C8000820F911D219120532A30C0F31EF490958C
:103C900081959F4F08957AE0979F902D879F802D63
:0A3CA000910D11240895F894FFCF50
:103CAA00454E5445522050415353574F52440044B5
:103CBA006973203D2000436D0057726F6E67205074
:103CCA00617373776F7264003132333435360000B2
:103CDA0000000000000000000102020303030304C5
:103CEA000404040404040405050505050505050581
:103CFA000505050505050506060606060606060661
:103D0A000606060606060606060606060606060649
:103D1A000606060606060607070707070707070730
:103D2A000707070707070707070707070707070719
:103D3A000707070707070707070707070707070709
:103D4A0007070707070707070707070707070707F9
:103D5A0007070707070707080808080808080808E0
:103D6A0008080808080808080808080808080808C9
:103D7A0008080808080808080808080808080808B9
:103D8A0008080808080808080808080808080808A9
:103D9A000808080808080808080808080808080899
:103DAA000808080808080808080808080808080889
:103DBA000808080808080808080808080808080879
:103DCA000808080808080808080808080808080869
:0A3DDA0008080808080808010000A6
:00000001FF
